:020000022000DC
:106000000000012011640200D1A30200D3A302000A
:10601000D1A30200D1A30200D1A30200000000001E
:10602000000000000000000000000000D1A30200FA
:10603000D1A3020000000000D1A30200D1A30200FE
:10604000D1A30200D1A30200E58D0200D1A302007A
:10605000D1A30200D1A3020091820200D1A30200C9
:10606000FDE0020003E1020009E1020029E602006E
:10607000D1A30200F9940300D1A30200D1A302002E
:10608000D1A3020079AF0200D1A30200D1A3020084
:10609000D1A3020015B002004D9C0200D1A3020062
:1060A000D1A30200D1A302000FE1020015E102001A
:1060B000DD860200D1A30200000000000000000005
:1060C000D1A30200E3860200E9860200D1A3020008
:1060D0002FE60200D1A30200D5A3020000000000B9
:1060E00000000000000000000000000000000000B0
:1060F00000000000000000000000000000000000A0
:10610000000000000000000000000000000000008F
:10611000000000000000000000000000000000007F
:10612000000000000000000000000000000000006F
:10613000000000000000000000000000000000005F
:10614000000000000000000000000000000000004F
:10615000000000000000000000000000000000003F
:10616000000000000000000000000000000000002F
:10617000000000000000000000000000000000001F
:10618000000000000000000000000000000000000F
:10619000426C75655079726F0000000000000000CD
:1061A00000000000675F0300492D535953542D42EE
:1061B0004C55455059524F1900000000FFFFFFFF9A
:1061C000FFFFFFFFFFFFFFFFFFFFFFFFFFFFFFFFDF
:1061D000FFFFFFFFFFFFFFFFFFFFFFFFFFFFFFFFCF
:1061E000FFFFFFFFFFFFFFFFFFFFFFFFFFFFFFFFBF
:1061F000FFFFFFFFFFFFFFFFFFFFFFFFFFFFFFFFAF
:10640000FFFFFFFFFFFFFFFFFFFFFFFFFEFFFFFF9D
:106410000F481049884208B502D00F4A13F0A2FE77
:106420000E4A0F48002113F0C5FE04F03DFB04F0B6
:1064300033FB0C4B0C4A1B6803F5F40303F5905334
:10644000B3FBF2F3094A136000F042F8FEE700BF25
:106450000040002084BC0300080800008C150000E8
:1064600008480020A04200200024F4009C420020A4
:10647000F8B500BFF8BC08BC9E467047F8B500BF31
:10648000F8BC08BC9E46704710B5054C237833B95C
:10649000044B13B10448AFF300800123237010BDF7
:1064A000084800200000000084BC030008B5034B2E
:1064B0001BB103490348AFF3008008BD0000000092
:1064C0000C48002084BC0300A3F5803A704700BF4D
:1064D000174B002B08BF134B9D46FFF7F5FF00211C
:1064E0008B460F461348144A121A13F063FE0E4BE4
:1064F000002B00D098470D4B002B00D09847002070
:10650000002104000D000D48002802D00C48AFF314
:10651000008013F0E9FD2000290000F017FC13F0C3
:10652000CFFD00BF000008000000000000000000D8
:106530000000012008480020945D002000000000B9
:106540000000000008B503681B689847007E08BD7E
:10655000036810B51B689847836C13B1BDE8104001
:10656000184710BD704724307047C36C243018475B
:10657000836C24301847436D24301847036E243051
:1065800018470B78FF2B01D102F02CBE7047043066
:1065900001F0E4BF134624300A46002104F0B9B8E4
:1065A0001FB504680193CDE902212468A047DDE905
:1065B0000132039904B0BDE8104004F0AAB80430D9
:1065C00001F036BF134624300A46002104F062B8B9
:1065D0001FB504680193CDE902212468A047DDE9D5
:1065E0000132039904B0BDE8104004F053B8043000
:1065F00001F026BF10B5044603F0E8FE204610BDAA
:10660000043002F0EDBB043002F06ABA10B5D0F8E5
:1066100080000C4603F0F0FFA042B4BF0020012030
:1066200010BD10B5836E044624309847BFF35B8FCE
:10663000002384F83030BFF35B8F10BD7FB5066850
:106640000193CDE902213668DDE90845B047DDE96F
:1066500001320399CDE9084504B0BDE8704004F06B
:10666000C7B87FB506680193CDE902213668DDE938
:106670000845B047DDE901320399CDE9084504B08A
:10668000BDE8704004F072B8043001F0CBBF0430B4
:1066900001F04CBE043001F0B7BF043001F094BFEC
:1066A000043001F083BF043001F05FBF0B2B30B426
:1066B0000A4615D90B4B986800F4FD7508684968BF
:1066C0001C4603C49068084A2843986020F4CD70A3
:1066D00040F488700021188130BC084600F0BCBB33
:1066E00030BC7047204000201D6A020000F13803D2
:1066F000BFF35B8F53E8002F013243E800210029EC
:10670000F8D1BFF35B8F012A02D1436C24301847C4
:1067100070470000037823B9436813B9014B012285
:106720001A7070477C48002010B500F13803044609
:10673000BFF35B8F53E8002F013A43E800210029A3
:10674000F8D1BFF35B8F002A09DC236C04F124002D
:106750009847BFF35B8F0023A363BFF35B8F10BD2C
:1067600008B502F035FD034680B902460E210848FF
:1067700002F06CFD50B9BFF35B8F064B01221A701B
:10678000BFF35B8FBDE8084002F048BD08BD00BF05
:106790003C480020004A002010B500F130020446B9
:1067A0004FF00100BFF35B8FD2E84F3FC2E84C0FC0
:1067B000BCF1000FF8D1BFF35B8FDBB25BB9236D87
:1067C00004F12400984728B9BFF35B8F84F83000A8
:1067D000BFF35B8F10BD0020FCE710B5836D04464E
:1067E00024309847BFF35B8F002384F83030BFF329
:1067F0005B8F10BD10B500F1300204464FF0010070
:10680000BFF35B8FD2E84F3FC2E84C0FBCF1000FE3
:10681000F8D1BFF35B8FDBB25BB9E36D04F1240009
:10682000984728B9BFF35B8F84F83000BFF35B8FC4
:1068300010BD0020FCE700007FB5099E05680296A8
:10684000089E064CCDE90036A2FB04232D6AA8471A
:10685000024A002313F0D8FD04B070BD40420F007F
:1068600073B5036B05460E469847D5E9024304FB12
:1068700001F500FB0355A4FB00040023124A29196B
:1068800013F0C2FD114B082E18601AD1104C23686A
:10689000013B002B23604FF0000310DDCDE90033F6
:1068A0000C48FA221946FFF7C7FF21680A48C1EBD6
:1068B0000111090202B0BDE8704001F054BB236031
:1068C000F3E702B070BD00BF40420F005449002002
:1068D000D44800200049002080480020F0B505463B
:1068E00085B000286BD14FF0A04401F01FFC4FF49D
:1068F0008076344B344AC4F8086529460127284677
:106900005F7000F0A9FA3148FFF759FE304B31486B
:106910001F604FF4706101F026FB4023C4F8083576
:10692000D4F8182722F00302C4F81827D4F818273F
:1069300042F00202C4F81827274AC4F81835126832
:1069400012430CD0100000BF00BF00BF00BF00BF4B
:1069500000BF00BF00BF00BF00BF0138F3DC14213F
:10696000C4F80C354A4312430CD0100000BF00BFDE
:1069700000BF00BF00BF00BF00BF00BF00BF00BF1F
:106980000138F3DCD4F8182722F00302C4F81827E2
:10699000C4F81C35114BC4F80C6501930223009315
:1069A0002A46062303210295284601F00DFCCDE975
:1069B00000550B482B46FA222946FFF73DFF05B04C
:1069C000F0BD00BF3C48002061670200D8480020AD
:1069D000D4480020804800209C420020DD6802004E
:1069E000004900207FB50023CDE90333CDE9013311
:1069F000059303AA01AB47F210014FF2100001F01A
:106A000081F930B9044903A801F026F908B100F072
:106A1000D9F907B05DF804FB8CA8030038B5134B17
:106A2000134D1C4603CC1922C5F80600C5F80A1000
:106A30001048996803F0A4FFFFF7D4FF0E4B1B68C2
:106A40004FF47A7253431B430CD0180000BF00BFB1
:106A500000BF00BF00BF00BF00BF00BF00BF00BF3E
:106A60000138F3DC2068C5F8020038BD2040002062
:106A70003C480020F04800209C42002010B5104CFB
:106A80006378013BDBB2FF2B637011D100230D4A09
:106A90006370BFF35B8F1370BFF35B8F617869B96D
:106AA000094801F060FABDE81040084801F056BD01
:106AB0000021074A084600F0CFF9EFE710BD00BFFC
:106AC0003C480020004A002080480020DC4800208C
:106AD000616702000146014803F018B94C480020E4
:106AE00010B50749074803F0B6F908B100F06AF994
:106AF000BDE81040044A03480C23002103F0DBB832
:106B0000CCA803004C4800202040002030B5344879
:106B100089B000F023FF00F037FF08B100F052F910
:106B2000304C237813B903F01BFCFAE70023CDE9BE
:106B30000533CDE90133079305AA01AB47F21001F4
:106B40004FF2100001F0DEF8274D044600283DD139
:106B500003A905A8CDE9034401F030F808B100F01D
:106B600031F9049A204B1068516803C3906843F8C8
:106B7000080903CB1D4A1060516005A801F044F8D4
:106B800008B100F01FF901AB05AA47F210014FF25E
:106B9000100001F0B7F80028DAD04FF0A0431448F5
:106BA000D3F8182722F00302C3F818274022C3F8AD
:106BB0001C25A968192203F0E3FE0E4BA8680122E8
:106BC0001A700D4BC3F8020009B030BD0B4905A87F
:106BD00001F03EF80028F0D000F0F4F8EDE700BF37
:106BE000156702007C480020204000204248002019
:106BF000F0480020014A00203C4800208CA80300F7
:106C00007FB544494448454D13F0E2FB424813F038
:106C1000E7FB41490246424813F0A4FA0624AB7B45
:106C200001936B7B0093D5E901122B7B55F8100B78
:106C300001F04EFA013CF2D14FF0A0454FF08043F5
:106C4000C5F808354FF48013C5F808354FF4002314
:106C5000C5F808354FF48003C5F808353149324886
:106C6000324EFFF7C4FC324A2F493248032301F069
:106C700000FA3149314801F0D9FD23462146062268
:106C80002F4803F01FFE2346214607222D4803F01C
:106C90005FFED5F818372B4823F00303C5F81837E3
:106CA0004023C5F81C351E4B1922996803F068FE75
:106CB000336842F210756B431B430CD0180000BFC1
:106CC00000BF00BF00BF00BF00BF00BF00BF00BFCC
:106CD00000BF0138F3DC1C4B0193022300930294A4
:106CE000062322460321204601F06EFA33686B43E7
:106CF0001B430CD0180000BF00BF00BF00BF00BF87
:106D000000BF00BF00BF00BF00BF0138F3DC04B00C
:106D100070BD00BF2CA703004248002038A9030023
:106D20002040002098A90300D84800209C42002061
:106D30005CA8030080480020DCA703000449002071
:106D40006C480020F0480020DD68020008B5FFF71D
:106D500057FF034802F036FE02F056FF002008BD40
:106D6000F4A7030010B50D4C0D4B2046A42240F8AB
:106D7000043B002113F01EFA0A4A0B49A46720467F
:106D800013F082F9094B0A4A1A605B62094B0A4AFE
:106D90001A600A4B0A4A1A6010BD00BF5849002009
:106DA0003CA703000C40002065650200004900205C
:106DB000F8A90300D8480020A4A7030080480020B9
:106DC000C8A903001FB50021039001AA44F20100E5
:106DD000CDE9011100F004F805B05DF804FB0000F6
:106DE00072B6094BD3F8F020D20700D500BEBFF32E
:106DF0004F8FD968054A01F4E0610A43DA60BFF3B6
:106E00004F8F00BFFDE700BF00ED00E00400FA0572
:106E10004B1C30B5DB00044612F003009BB20DD1D1
:106E2000074D2A601A44074B1A60074B1870074B2E
:106E30001870074B1C80074B198030BD0720FCE7FA
:106E4000084A0020044A0020024A0020104A00207C
:106E50000C4A00200E4A00202DE9F743DFF8BC80E1
:106E6000B8F800308B4206460D46174647D300243B
:106E70000DF107008DF8074003F0FEFF224B234A77
:106E800023481B78008892F800C084455FFA8CF193
:106E900038BF4C1CDBB238BFE4B2A34228D0147810
:106EA0001178CBB2884286BF0133DBB20023137066
:106EB0009DF8070004F004F84FF6FF739C4220D0C1
:106EC000144B1B6843F8347003EBC4099EB195B1B1
:106ED000114BB8F800001B682A46314604FB00300D
:106EE00013F040F9A9F80450002003B0BDE8F08386
:106EF0004FF6FF74DCE70020A9F80400F5E709204D
:106F0000F3E70420F1E700BF104A0020024A002006
:106F10000E4A0020084A0020044A00200C4A0020A3
:106F200070B5104C104D22782B789A4200D170BD6C
:106F30000E480F4A2378126806880E4802EBC301F8
:106F4000006852F83320898803FB060090470A49FD
:106F500022780988D3B2914286BF0133DBB2002385
:106F60002370E0E7104A0020024A00200C4A00206B
:106F7000084A0020044A00200E4A002070B5064D41
:106F80000646002455F8043B0BB1304698470134BF
:106F9000062CF7D170BD00BF204A00204388033380
:106FA00000EB830399420BD382884FF6FF739A421A
:106FB00008D0038833B18068431C58425841704759
:106FC0000220704701207047033083B240F2FE3246
:106FD0009342F0B51ED8114C002526462078AFB25A
:106FE00080B92289B4F80AC062441A4492B2B2F558
:106FF000806F07D8142202FB05650F806A8913444D
:107000006B81F0BD0135032D04F11404E6D148F283
:107010000660F6E748F20860F3E700BF5C4A00202C
:107020000B4A0C495388142000FB0311CB6833B979
:107030000420496810700122074804F037BA074954
:107040000523137002238B80012209680023F3E7D4
:10705000404A00205C4A0020F4470020384B0020C2
:1070600007B5002305490093054A09680548082328
:1070700004F0EEF903B05DF804FB00BF384B0020CC
:10708000B8A90300F447002007B500230146009388
:10709000034A0448082304F0DBF903B05DF804FB5D
:1070A000B0A90300F447002013B500230C46009359
:1070B0000146084A0848042304F0CAF938B9074BC6
:1070C000142101FB043101230B7402B010BD48F2FE
:1070D0000D60FAE7ACA90300F44700205C4A0020E9
:1070E00037B50A480A4B42689C88196853880325BB
:1070F000033305709BB2002000909B0001EB8401DC
:10710000044804F0A5F903B030BD00BF404A002098
:10711000384B0020F447002010B50146044800F029
:1071200056FE1C220446002113F044F8204610BDF0
:10713000244B002068B10268084B9A4209D140688C
:10714000074B984207D00133984214BF0320012017
:107150007047032070470020704700BFDEC0ADDEDF
:10716000FE011EF12DE9F0410D460223154F2B8043
:10717000164600F5805100F108044FF001088C42DA
:107180000ED2236801330BD02046FFF707FF48B12A
:107190000EB186F80080022809D14FF480632B805D
:1071A000BDE8F081A3683A68934200D93B602B8820
:1071B0006288033313442B806388033304EB830416
:1071C000DDE700BF544A002038B5144B14220D46A9
:1071D00002FB00302B68446804F58051A3B15C8841
:1071E000033403EB84048C4215D22368013312D09C
:1071F0002046FFF7D3FE012808D002280BD0002834
:10720000F1D12C60012038BD0834ECE763880333EA
:1072100004EB8304E7E70020F5E700BF5C4A0020A9
:10722000426873B504460D4652B3224BD9688A4270
:1072300026D31B699A4223D812F0030320D11E499A
:107240000089098988421BD120689168884217D13A
:107250001A4C1946606882428EB209D900F58050F6
:10726000824205D22E80B3FA83F0400902B070BD8D
:107270000131032904F11404ECD148F20963F2E767
:1072800000262E800196288801A9FFF79DFF30B9BE
:107290002B8801339BB2022B2B80F3D9E6E7019BAD
:1072A000226899689142EED16360034B1B89238168
:1072B000DCE700BFF4470020404A00205C4A002081
:1072C0002DE9F8431C461D4B1B7806460F46154614
:1072D00073B382B37CB3DFF86C804FF01409A388DA
:1072E000022B02D948F2096020E009FB03F318F8E9
:1072F00003302BB9A0882146FFF766FF20B9206034
:10730000A3880133A380EAE723681EB199883288F5
:107310009142EFD11FB119883A889142EAD19A6817
:10732000C5E90023064B1B892B810020BDE8F883AB
:1073300048F20160FAE748F20460F7E7384A0020B3
:10734000404A00205C4A002008B5074B5888191DA8
:10735000FFF73AFF18B1BDE80840FFF7C1BEBDE82E
:107360000840FFF75DBE00BF404A00202DE9F0470E
:10737000A14FDFF8A88288B006463B6823B99F4832
:10738000414600F05EFD38603D6829784B1E052BB4
:1073900007D8DFE813F02000770077000901090122
:1073A0005F0148F20E641422002103A812F002FFCC
:1073B00041F61D539C4208BF00243B6804941A7890
:1073C000023A042A00F20A82DFE812F0EB01F70128
:1073D0001902210228022EB1894B00225A604FF473
:1073E0000644E0E72B79032B1ED8DFE803F01602F2
:1073F0002D38844A1378022B1CD0137D022B1BD00E
:1074000092F82830022B19D114214B43D1180020B7
:10741000D0544868FFF738FE03E001232B71FFF7D3
:107420001FFE002800F0BA80754B00225A6048F217
:107430000D64B8E70023E7E70123E5E7704B01227D
:107440001A7000225A60FFE06F4970480023022240
:107450002B718A800968012204F028F8E1E76C4B5F
:10746000684C5B88684A14214B43E11800262E7152
:107470004D6810681560958848600D810221E654BA
:107480009180C7E7B5F814A0AA7DDFF87891AEB176
:10749000022AEB8806D9142101FB0A91DA1C08891B
:1074A00002440A81142202FB0A99C3F57F43B9F80A
:1074B0000A20FD331344A9F80A3090E7142303FB94
:1074C0000A9318895C6804EB8004062A69D8DFE80F
:1074D00002F0274E36441D5A040041F61D54AA7D81
:1074E000EB88022A06D9142101FB0A91DA1C0889CB
:1074F00002440A81142202FB0A99C3F57F43B9F8BA
:107500000A20FD331344A9F80A304CE741484249A8
:1075100000234360AB690360FFF782FE00285AD066
:107520000223AB75002300930423EA182146374851
:1075300003F08EFF002831D048F20D64CFE72B69AD
:10754000002B14BF03230123AB750023009305F127
:107550000C02042304F10801E9E70123AB750022C2
:10756000EB8800922A699B0004F10C01DFE70329F4
:107570000CBF05230623AB7500230093042305F1FC
:107580000802E118D3E70623AB75234B1988214B7A
:107590005868FFF789FD04460028A0D108B0BDE86F
:1075A000F08748F20E649AE7002E7FF418AF2B792B
:1075B000012B35D0022B47D0002B7FF4F2AE0223F3
:1075C0002B710DF10A01EB68039303A8CDE9046662
:1075D000FFF726FE10B948F20964E4E60498BDF806
:1075E0000A108388EB8003882B81FFF75DFD04463A
:1075F000002C7FF4D8AED1E7584A0020244B00205D
:10760000384A00205C4A0020384B0020F447002014
:10761000404A0020144A0020444B0020504A0020D9
:10762000DFF8189203AA4B463146A81DFFF748FE23
:10763000044660B9B9F804100498FFF735FD044614
:1076400048F209639C42D3D141F61D54ABE6C9E927
:107650000066F5E7002E7FF4C2AE724B5A7BBAB1DA
:107660005E731A78013A062A3FF69BAE01A151F8E3
:1076700022F000BF2B770200637702007B770200C5
:1076800081770200A37302008777020099770200D6
:107690001A78072AE5D801A151F822F0BD76020038
:1076A0006376020063760200EF7602000377020041
:1076B0002777020027770200EB7602001A895A49E1
:1076C00001321A8100225A805A730A78B2FA82F281
:1076D00052099A720A7DB2FA82F25209DA7291F86C
:1076E0002820B2FA82F252091A73012207E04F49A8
:1076F00058688A884088033202448A8002221A70BD
:10770000AFE75C88484A4949142505FB042208680C
:10771000546850608888108102200C6088800021A5
:1077200011740622EBE70722E9E73F4A4049104679
:107730000024142511F801EB1FFA86FCBEF1000F9E
:1077400012D005FB060E01F8014CDEF80CE0BEF18C
:10775000000F09D192F810E0BEF1000F04D0A3F899
:1077600002C0FFF7F1FD42E70136032E02F11402D9
:10777000E0D100221A705A8064E6FFF7B1FC36E7C8
:10778000FFF74EFC33E75A88274B142101FB0233E5
:107790005868FFF779FC2AE700225A60FFF760FC7F
:1077A00025E701228DF80C201A89ADF818209A8857
:1077B000DB68ADF81A20059310E002228DF80C204A
:1077C0001A89ADF818209A88ADF81A20DA689B7DDE
:1077D00005929A1F534253418DF81C3003A8FFF7BE
:1077E000CDFB0026414613483E6000F055FB124891
:1077F000012100F0A8FB00287FF4BFADCEE60322F4
:107800008DF80C20DA88ADF818201A89D0E7042208
:107810008DF80C20DB88ADF81830DFE705238DF8F4
:107820000C30DBE7404A00205C4A0020384B002047
:107830004A4A0020244B0020344B0020484B0020B3
:107840004068FFF793BD000008B50548012100F02E
:1078500062FB18B9BDE80840FFF788BD08BD00BF4E
:10786000344B00202DE9F3419846374B1B780646F0
:107870000D46002B5CD000295DD009884FF6FF73C0
:1078800099425BD06B88002B58D06B689B0758D10E
:107890004AB92F890DF102013846FFF795FB30B147
:1078A00002B0BDE8F08113885788ADF8023001A816
:1078B000FFF732FC044660B9BDF80220234B1421C7
:1078C00001FB023358890338C01B588148F2076016
:1078D000E6E780F8008000238375BDF802308382DC
:1078E0006B68036101211A4800F021FB2B8823817A
:1078F000B8F1030F6B88A38004BF0423A3754FF076
:10790000000508BF3368E06008BFA3611148E78045
:10791000658101A900F085FA36B1E36833600E4B4A
:1079200075601B89B5723381FFF78EFF0020B7E7C2
:1079300048F20160B4E748F20460B1E748F203603E
:10794000AEE748F20260ABE7384A00205C4A00200C
:10795000544A0020244B0020404A002008B503462A
:1079600007480268062A08D00168064A42F8213012
:10797000012100F0DCFA002008BD48F20B60FBE7B3
:10798000404B0020204A00202DE9F04FDFF82082F4
:1079900089B01422002103A812F00CFC98F80030E2
:1079A00003F0FF0200923BB103A8FFF7E7FA0027BC
:1079B000384609B0BDE8F08F08F1040000F0CFFAB6
:1079C0000028F4D1009BDFF8ECA1D3F8F83F5C1C51
:1079D00008BF4FF010234FF0805208BF5B69116958
:1079E0005269581C08BF02FB01F3CAF810306949FC
:1079F000A3F5804300225046CAF80C3003F01AFD6C
:107A000007460028D4D11C2363496448DFF8A8B195
:107A10008C2200F0A7F90423B9463D4601933C4669
:107A2000DAF80C604E443046FFF784FB012867D03B
:107A3000032817D000283DD159494FF0140C0CFBF6
:107A400004FC01EB0C0201F80C0056600CF1100272
:107A50000CF1080C0A4430466144FFF783FB45F003
:107A600002054AE03268531C02D04E4B9A4239D18B
:107A7000321D06F580511068013033D10432914235
:107A8000F9D1DBF800203AB902220123CBF80060DB
:107A9000ABF8042000930BE014226243404B022019
:107AA00099189854404A4E60548001340881A4B219
:107AB00045F0010509F58059B9F5804FB0D1019B1A
:107AC000012B98BF0025EDB2022D03D0062D36D034
:107AD000002D3ED1002388F8003048F20A67C8F82C
:107AE000043065E7019B2E495A1E93B2142262436B
:107AF000881801934660032088540134A4B2D9E762
:107B0000009B6BB1264B14226243991802209854B3
:107B1000DBF800204A60244A088154800134A4B272
:107B200000222249CBF800603046FFF71BFBBBF870
:107B30000420022A0CBF042208221543BAE70123BD
:107B400088F8003003A80023C8F80430FFF716FABD
:107B50002EE702A8FFF7E0FAC8B10123013D037048
:107B60000A2D09D8DFE805F0060806080708070807
:107B70000F110F000023037102A9084800F051F90A
:107B8000FFF762FE14E70323F5E70223F3E748F269
:107B900007670DE734AB0300984A0020244B002010
:107BA0005C4A0020DEC0ADDE404A00203C4B002095
:107BB000384A0020F4470020384B002073B50D46AA
:107BC0000446C8B1C1B10DF10601FFF729FBB0B100
:107BD000BDF806300B486668142202FB0300012141
:107BE0000C3000F0A4F963682E600C336B60012345
:107BF000A372002002B070BD48F20460FAE748F2B8
:107C00000960F7E75C4A002013B50446A8B10DF1FE
:107C10000601FFF705FB98B1BDF806200B4B1421B8
:107C200001FB0233DA6872B1A27A62B1DA6800202D
:107C3000013ADA60A07202B010BD48F20460FAE7BF
:107C400048F20960F7E748F20560F4E75C4A002073
:107C500002230022FFF706BE18B103230022FFF71C
:107C600001BE48F204607047114B1B7813B50446FF
:107C7000ABB14FF6FF73984214D001A8FFF74CFA4E
:107C800098B10523037001230371C48001A9094839
:107C900000F0C7F8FFF7D8FD002002B010BD48F291
:107CA0000160FAE748F20360F7E748F20760F4E79B
:107CB000384A0020244B00200F4B1B7807B5A3B196
:107CC00001A8FFF729FA98B10623037001A90B4810
:107CD00000F0A7F80A4B1A780AB101225A73FFF78D
:107CE000B3FD002003B05DF804FB48F20160F9E742
:107CF00048F20760F6E700BF384A0020244B002016
:107D0000404A002007B5ADF80600ADF804100DF1AB
:107D1000060001A9FFF7D4FA03B05DF804FB07B52C
:107D20001346ADF806000A4600200DF10601FFF7E4
:107D3000C7FA03B05DF804FB07B51346ADF80600BB
:107D40000A460DF106000021FFF7BAFA03B05DF80C
:107D500004FB20B119B103680B600020704748F2A2
:107D60000460704710B561B1B2FBF3F403FB142457
:107D7000A4B244B9C0E9001484608281C381204662
:107D800010BD0E20FCE70920FAE782B050E8022F70
:107D9000C188B2EB324F4FF0000317BF92B241EAF5
:107DA000014142EA014104E04268B2EB324F08BFB0
:107DB000012340E80212002AE8D18DF807309DF82F
:107DC0000730002B0CBF1120002002B0704737B5E0
:107DD00050E8013F9DB2C48925448489A54228BF4B
:107DE0002D1B0489A54202BFBFF32F8F002207E09D
:107DF000C5EA030540E80154002CE9D14FF0010227
:107E00008DF803200193019A0A609DF8031001F098
:107E1000FF0321B1006810FA82F003B030BD1846AC
:107E2000FBE70A884B889A4209D150E8012FC2EA41
:107E3000024240E80123002BF7D1012070470020C7
:107E4000704737B550E8023F1FFAA3F5C488A54232
:107E500002BFBFF32F8F00220DE0C489254484891F
:107E6000A54228BF2D1BC3EA054540E80254002C5B
:107E7000E8D14FF001028DF803200193019A0A60C6
:107E80009DF8031001F0FF0321B1006800EB1240E0
:107E900003B030BD1846FBE70A884B889A4209D1E7
:107EA00050E8022FC2EA224240E80223002BF7D119
:107EB000012070470020704710B5034653E8000FBB
:107EC0000A4643E8002494F0000FF7D110BD10B526
:107ED000034653E8000F40EA010243E8002494F00F
:107EE000000FF6D110BD10B5034653E8002F42EA4B
:107EF000010043E8000494F0000FF6D110BD10B566
:107F0000034653E8002F02EA010043E8000494F01E
:107F1000000FF6D110BD10B5034653E8000F00EB7B
:107F2000010243E8002494F0000FF6D110BD10B513
:107F3000034653E8002F02EB010043E8000494F0ED
:107F4000000FF6D110BD10B5034653E8002FA2EB89
:107F5000010043E8000494F0000FF6D110BD0121A8
:107F6000FFF7B5BF70472DE9F3410369019104465E
:107F7000D3B101AE00254FF0640800F11407E268A8
:107F80002069AA4203680ADD16F8012B1B6A290141
:107F900012FB08F27958120A98470135EFE75B693E
:107FA00000219847019BA36002B0BDE8F08170B545
:107FB0000446002500F11406E2682069AA4203681D
:107FC00006DD29011B6A7158642298470135F3E7E1
:107FD0005B69002198474FF0FF33A36070BD70B517
:107FE0000446002500F11406E2682069AA420368ED
:107FF00006DD29011B6A7158002298470135F3E715
:108000009B6998470023A36070BD81680368C943DA
:10801000DB68184710B50446006940B103685B6827
:1080200098472069036800215B699847012010BDCB
:1080300010B50446006940B103689B699847206900
:108040000368BDE810409B68184710BD70B5054631
:108050000024EA682869A242036805DD21461B6AFC
:10806000002298470134F4E7BDE870405B690021C5
:108070001847F8B505461C4610460E4621B312B304
:1080800023B3012305F11407C5E903412201014689
:108090002B71384612F066F833682246DB683946A1
:1080A000304698470024EA682869A242036806DD42
:1080B00021011B6A7958002298470134F3E75B6974
:1080C000002198470120F8BD0846FCE71846FAE76A
:1080D00001309DF8002019D0481C17D0012B0CBF8F
:1080E00003230023022A12D002F0FD02012A01D14B
:1080F00043F00C039DF8042001F5E071012A4FF0D4
:10810000A04208BF43F4C06342F82130704743F0F7
:108110000403EFE7013008D04B1C1FBF01F5E071ED
:108120004FF0A043022243F821207047072810B5E2
:108130002CDC0028214B224A29DA4FF00041C3F8F9
:1081400008130021C3F87C110820010102EB001084
:108150004FF6FF73038100235354194A4360C360F1
:108160000923516891B9013B02F11002F9D1154B75
:108170004022C3F88021C3F88020BFF34F8FBFF3A4
:108180006F8F0E4B4FF0FF32C3F8082310BD012153
:108190008140C3F8081300F5A271002443F8214080
:1081A00002EB00131B7A9B0003F1A043D3F80017E6
:1081B00021F44031C3F80017C7E700BF006000405A
:1081C000504B002000E100E0F0B507289DF8146056
:1081D00056DC9F0007F1A047022ED7F80047C7F8EA
:1081E00000470FD0032E3AD0012E3ED11C0204F4DA
:1081F000F85444F40034D7F8005744F0010445F42F
:10820000403508E0D7F800571C0204F4F85444F055
:10821000011445F40035C7F800570028194D26DA37
:108220000020C5F87C014FF00040C5F80403082089
:10823000154C050104EB001043EA02230381069B61
:108240004360079BC3604901104B66554022C9B289
:10825000C3F8802183F806131A600120F0BD1C02C8
:1082600004F4F85444F44034C5E70024D5E700F59D
:10827000A27745F8274001248440C5F80443D7E796
:108280000020EBE700600040504B002000E100E0E0
:108290002DE9F041194E00243746A046A50005F10E
:1082A000804505F5C045D5F8003133B1736813B189
:1082B000F16820469847C5F800810134082C06F182
:1082C0001006EBD10E4CD4F87C3183B1D7F8843052
:1082D00023B1D7F88C104FF0FF3098470023C4F833
:1082E0007C314FF0A0434FF0FF32C3F82025054BFF
:1082F0004022C3F88021BDE8F08100BF504B002030
:108300000060004000E100E000290CDD0268D2F8C6
:1083100004310139002BF7D00023C2F8043180F872
:1083200024300120704700207047000070B568B30A
:108330000369002B60D0314D1A68C1EBC134AC42E7
:1083400025D80724C2F80C452D4C9C609D6805EB90
:108350005104B4FBF1F105EB5105B5FBF1F54560B6
:10836000007A01284FEA51041BBF00200C46C2F8D6
:108370000405C2F80405DC60C2F8084593F824102F
:10838000012301F0FF00002936D0936070BD1D4D20
:10839000AC4204D80624C2F80C451B4CD5E71B4D53
:1083A000AC4204D80524C2F80C45194CCDE7194D50
:1083B000AC4204D80424C2F80C45174CC5E7174D4D
:1083C000AC4204D80324C2F80C45154CBDE7154E49
:1083D000B44204D20224C2F80C45134CB5E7134D45
:1083E000AC4235BF01240024C2F80C45C2F80C454C
:1083F00034BF9E609D60A9E71846C7E78FD0030091
:1084000048E801001FA1070090D003003F420F0081
:1084100020A107007F841E0040420F00FF083D009E
:1084200080841E0000127A0000093D000024F40040
:1084300028B1006918B103680120C3F8000570472E
:108440002DE9F0410D4600240646002873D000298E
:1084500078D00F68022F77D80B7A03722823076031
:10846000DFF8F48049685F4308EB070258F80730EB
:1084700050600261C3F81C41C3F81841C3F81041B1
:10848000C3F81441C3F80841C3F80C41C3F80441D0
:1084900082F82440FFF74AFF07F1140308EB0302B8
:1084A00048F8034007F11C0308EB0301546048F847
:1084B00003404C6058F807300220C3F81005C3F899
:1084C00020250422C3F82425C3F82845C3F82C45E9
:1084D000C3F84015C3F844256A7AC3F84845C3F881
:1084E0004C4522B3C222C3F800232B6883429CBFB1
:1084F000164AD456002CE3B208DB03F01F006209D1
:10850000012181406032124840F82210EA68002CB4
:108510004FEA4212D2B210DB0D4D291981F8002327
:1085200003F01F0264090123934045F824303046CC
:10853000FFF77EFF0120BDE8F081064903F00F033D
:10854000CA54F4E70846F6E72046F4E7ECA903002E
:1085500000E100E014ED00E0CC40002020B1036910
:108560001B680022C3F800257047F0B5D8B1C9B127
:1085700007690024944217DA086803280FD88B682B
:10858000CE683D685B0106F01F0603F0200333430D
:1085900000F5AC76384445F826300B790374013485
:1085A0001031E7E70846F0BD0120FCE758B1032988
:1085B00009D803691B6803EB8101D1F8603543F0EA
:1085C0000043C1F86035704710B5B0B10369C3B15D
:1085D0001A680024C2F8044181B1406841434FF455
:1085E0007A70B1FBF0F11020C2F8000249080120B6
:1085F000C2F81415906083F8240010BDC2F8001270
:10860000F5E71846F9E7000048B100690449036836
:1086100001225A60002380F82430FFF775BE7047AE
:10862000A086010010B508B3032920D80369007A99
:10863000DC68012803EB010004FB02F2007C4FF030
:108640006404B2FBF4F208BF5208012803EB4101B5
:1086500008BF42F4004292B28A828A8393F82410BF
:10866000012201F0FF0021B11B689A6010BD0020BB
:10867000FCE71046FAE700002823174A434310B4EA
:10868000D358D3F81C11012904BF0024C3F81C419E
:10869000D3F8184118BFFF21012C04BF0021C3F8F3
:1086A0001811D3F8044108BF0221012C07D1002181
:1086B000C3F80411282303FB002383F82410282384
:1086C00003FB00225068C36813B15DF8044B1847E0
:1086D0005DF8044B704700BFCC4000200020FFF73E
:1086E000CBBF0120FFF7C8BF0220FFF7C5BF043092
:1086F0007047C36A04301847836A04301847036B15
:1087000004301847436B0430184780687047836B08
:108710000430184710B49DF804400194846C043070
:10872000A4465DF8044B6047436C043018470000D2
:1087300038B5436B054604309847D5E90343614398
:1087400000FB0311A4FB0004024A0023214411F0A2
:108750005BFE38BD40420F0010B5D0E903416343D2
:1087600002FB0131A4FB02040023024A214411F060
:108770004BFE10BD40420F0038B5436B0546043038
:108780009847D5E90343614300FB0311A4FB0004B0
:108790004FF47A720023214411F036FE38BD10B533
:1087A000D0E90341634302FB0131A4FB020400232F
:1087B0004FF47A72214411F027FE10BD10B5436BBF
:1087C000044604309847D4E90332594300FB0211B0
:1087D000A3FB0003194410BD10B5D0E90341634366
:1087E00002FB0131A4FB0202114410BD70B5016C03
:1087F00086B005460430CDE904328847041E10DBFC
:108800000C9802900B98296801909DF82800009020
:108810000E6ADDE9043221462846B047204606B0FC
:1088200070BD0024FAE7043000F000B838B131B16F
:108830000B68022B01DC05F0FDBE05F06FBC0020CB
:10884000704703689B685868704700000A4A10B573
:108850000023044652F83300884207D3216802EB14
:10886000C30349685B68C1F8243510BD0133102B80
:10887000F0D10020F9E700BF40AA030001207047B3
:10888000704703685B6801225A60DA604FF0FF327C
:10889000C3F81425C3F80C25C3F80825C3F8102520
:1088A0000022C3F80025704710B504686368D3F848
:1088B000FC2F0122C3F8FC2F0022C3F8FC2F6069B3
:1088C000431C04D000F01F014009FFF723FCA069FE
:1088D000411C04D000F01F014009FFF71BFCE068B9
:1088E000421C04D000F01F014009FFF713FC20696F
:1088F000431C06D000F01F01BDE810404009FFF7FF
:1089000009BC10BD2DE9F04F1446D0F800A0026953
:1089100085B005460E4600274FF00109002C44DDC6
:10892000002A02F1FF383FDDEFF3108B72B6DAF860
:1089300008200394D06F03A901F00DFE48B1039AFB
:10894000314611F00FFC039AA41A002C1644174468
:10895000EDDC8BF31088DAF8082092F8A11009B347
:1089600095F819B0D06FBBF1000F2CD0102303A9DC
:10897000039301F091FDA8B1DAF8082000210AF173
:108980007C0B82F8A110039A01920146584611F01F
:10899000E9FBDAF80410019AC1F84825C1F844054A
:1089A000C1F808904246B9E74246002A07DCDAF8E7
:1089B0000830D3F89C20E41B1444C3F89C4038468C
:1089C00005B0BDE8F08FDAF80410C1F81CB182F8E8
:1089D000A19001F046FD0028E4D0DAF8082082F8E2
:1089E000A1B0DAF804200178C2F81C15DAE72DE905
:1089F000F7430D4614460668EFF3108972B64FF040
:108A0000000884B1B368019401A9986F01F044FD96
:108A1000014640B1019F28463A4611F0A3FBB844F5
:108A20003D44E41BEDE789F31088B36893F8A02078
:108A30006AB1986F01F05FFD48B17368B1680022B8
:108A4000C3F8082181F8A020D3F8183503704046F8
:108A500003B0BDE8F08370B50468A368002506463E
:108A6000C3E92355C3E92555D86FC3F89C5001F0DD
:108A7000B5FD737EE268D3B16368C3F8142522693B
:108A8000C3F80C256269C3F81025A269C3F808254C
:108A9000D3F8002542F00802C3F800250122C3F8EC
:108AA00010511A60A368012283F8A12070BD636889
:108AB000C3F814252269C3F80C256269C3F8102590
:108AC000A269C3F80825D3F8002542F00402C3F8D0
:108AD000002501221A609A60E4E701207047704780
:108AE0002DE9F74F0D460446002800F05381002978
:108AF00000F050814868002800F013818B68002B3B
:108B000040F34881D1F800A0BAF1000F40F0428153
:108B1000A24E086B77680122D7F8FC3F91F8283005
:108B2000C7F8FC2F002800F0FF80C96A002940F335
:108B3000FB8001F083FCA067A86B95F82830012228
:108B4000002800F0F580696B002940F3F18001F006
:108B500075FCD5F80480D5F808B0D8F81420E06783
:108B6000012393404FF0A042BBF1000FC2F808353B
:108B700000F3E180D8F8041095F83C3084F83930DF
:108B8000D8F80030D8F81420266201F01F0141EA1D
:108B90004311D8F81030B46002F01F0242EA4312C9
:108BA00073683261C3F81415C3F80C25D3F86C252B
:108BB000F16022F01C02C3F86C2595F914200132F3
:108BC00040F0CD80D3F86C25C3F86C25E96804F13A
:108BD0002000FFF73BFE00236060C7F80831C7F8AC
:108BE0001C31C7F82431C7F84431D7F88024C7F8BE
:108BF000802494F83920C7F8003132B17268C2F885
:108C00004C31C2F85031C2F85831287F73680228BD
:108C1000D3F86C2540F0A880D8F82410D8F830C0DC
:108C200042F00102C3F86C25D8F8202001F01F01A2
:108C300041EA4211D8F83420716102F01F0242EA81
:108C40004C12C3F81015B261C3F80825B2680023AE
:108C5000012182F8A030C2E92333C2E9253382F82A
:108C6000A110C2F89C30072284F838202A69A2603B
:108C7000AA69226195F83F20227695F83E20E27598
:108C800095F83D20A2752A6CE2612A7D22736A7FE5
:108C900062756A6A2267424AE263424A2264424A31
:108CA0006264424AA264424A2075E264414A2265F3
:108CB000414A6265414AA265414AE265414A6266AB
:108CC00064222263404AE266BFF35B8F6163BFF3B5
:108CD0005B8FBFF35B8F84F82C30BFF35B8F94F80E
:108CE0003940002C4DD072680820C2F80005C2F847
:108CF00010311160687F4FF0FF33C7F80833002848
:108D00004AD07368002C43D0304AC3F804232B6A3E
:108D10002F4A5B010421DBB2C2F8801182F80233D2
:108D2000116003B0BDE8F08F2A480122302100E72E
:108D3000294830210BE7C14699F80E2099F80C30EC
:108D4000019299F80D200092D9E901120AF1010A65
:108D500059F8100BFFF7BCF9D345EDD10AE7D3F86A
:108D60006C2542F00E022FE722F00102C3F86C25B9
:108D70004FF0FF32C3F80825C6E90522C3F81025D5
:108D800064E773680422C3F8002599601960B1E7AD
:108D9000124ABAE70020C4E70120C2E7444100209C
:108DA00083880200578A0200438802004D8802002F
:108DB0007D880200EF89020081880200DB8A0200C0
:108DC00005890200DF8A0200A988020097030200D9
:108DD00000E100E060410020904100208702020095
:108DE00070470000A24B9B682DE9F3411C6A65683F
:108DF000D5F84431DBB223B10123EB620023C5F87F
:108E00004431D5F808315BB304260027A368C5F8C0
:108E10000871986F83F8A07001F06DFB002840F096
:108E2000F580A368012283F8A020D3F898200132AE
:108E3000C3F89820A3681A6F92B1986F01F0F2FB03
:108E40006168D1F844210346A068002A00F0EA8056
:108E50000022066FC1F8442180F8A0201146B047D7
:108E60006368D3F8102112B10022C3F81021D5F89D
:108E70001C3103B30023C5F81C31A36893F8397083
:108E8000CFB904266368C3F81C71A368D86F01F0DA
:108E9000E8FAA368002840F0C880012283F8A120E6
:108EA0001A6F42B1D86F01F0A7FB0346A0680022F9
:108EB000076F0221B8476368D3F8202112B9D3F8AD
:108EC000582162B30026C3F82061C3F8586110230B
:108ED0000193A36801A9D86F01F0DEFAA3680146E7
:108EE000002800F0B18083F8A160019E04F17C03AA
:108EF0001846324611F036F961680123C1F8486519
:108F0000C1F844058B60A3681A6F42B1D86F01F0B5
:108F100073FB0346A0680022076F0221B847D5F80B
:108F20002431002B44D0D5F880644FF00008F107BD
:108F3000C5F8248120D5A268D2F88C300133C2F85C
:108F40008C3004276368C3F80881A368986F01F028
:108F5000D2FAA36800287BD1012283F8A020A3685D
:108F60001A6F4AB1986F01F05DFB0346A0680022BA
:108F7000D0F870800121C047A068720742BFD0F8C6
:108F800094300133C0F89430B30748BFD0F8903024
:108F9000066F44BF0133C0F89030D5F88034C5F86F
:108FA00080341EB100231A460321B04701232B60F1
:108FB000D5F800318BB1A068D0F88030066F002260
:108FC00023F08003C5F80021C0F880302EB18DF861
:108FD0000420012301AA0321B047D5F8043193B13D
:108FE000A0680023C5F80431D0F88030046F43F046
:108FF0008003C0F8803034B180238DF8043001AA9A
:1090000001230321A04702B0BDE8F081D5F818354F
:109010000370D5F80831002B3FF40CAF013E7FF40C
:10902000F5AE07E7066F012119E783F8A1706268C2
:109030000178C2F81C15D2F81C21002A3FF430AF89
:10904000013E7FF41FAF2BE7012283F8A1205AE7EE
:1090500083F8A0806368D3F8183503706368D3F889
:109060000831002B3FF47BAF013F7FF46BAF76E715
:109070004441002072DF704773DF704774DF704730
:1090800076DF704777DF704778DF70477ADF7047A9
:109090007CDF704781DF70478FDF704790DF70475C
:1090A000B1DF7047B5DF704769DF704767DF704732
:1090B0003CDF70473DDF704741DF7047094A9368E6
:1090C000002B0DDBD16800290ADB01238B40117CCA
:1090D0004FF0A04211B1C2F80C357047C2F8083504
:1090E000704700BF144200207047FDF76BBE0000C0
:1090F00013B50446408804F047FB2378033B0D2B4F
:1091000022D8DFE803F0072337213F5321512153B1
:109110004453214C608801A902F07AFE08B1FDF7A2
:1091200051FE9DF804305B070ED4214C2149A088E4
:1091300002F078FE08B1FDF745FEA0881321FFF785
:109140009FFF08B1FDF73EFE02B010BD184B93F82B
:109150003820002AF8D098884FF6FF739842F3D051
:109160001321FFF78DFF0028EED002B0BDE81040BC
:10917000FDF728BE012360888DF8043001A902F0B4
:109180003BFEE1E702B0BDE81040FEF795BD084B9D
:109190009878012102B0BDE81040FFF76DBF02B022
:1091A000BDE8104002F02CBE2069DCE7A068DAE7D9
:1091B000144200205042002001F0D2B8037823B9B5
:1091C000024B3B219888FFF75BBF70471442002099
:1091D000034B98884FF6FF73C01A18BF01207047E1
:1091E0001442002008B54FF0FF310020FFF762FF66
:1091F000B1210020FFF75CFFBFF34F8F0549064BFD
:10920000CA6802F4E0621343CB60BFF34F8F00BF24
:10921000FDE700BF00ED00E00400FA0510B50A4CC0
:1092200094F839307BB9A2884FF6FF739A420AD17D
:109230000121A07884F83910FFF71EFF08B1FDF76F
:10924000C1FD0323237010BD144200202DE9F04717
:109250002A4C99462378032B05460E46924602D0A7
:109260000020BDE8F08794F83A30254F254A002BBE
:10927000254B08BF1F46254B14BF9046984688B122
:109280008A1C4046FF2105F099FA0028E8D0638A3D
:10929000438032462946043010F064FF1C4BD8F856
:1092A00004209A80BAF1000F11D009F10202FF21C7
:1092B000384605F083FA0028D2D0638A43803246CC
:1092C0002946043010F04EFF114B7A689A8194F8C9
:1092D000393013B1A078FFF7D1FE0D490D480022B7
:1092E000FFF7C8FE94F8393023B1002384F83930F1
:1092F000FFF794FF94F83900B3E700BF1442002051
:10930000FC41002008420020D4410020E041002020
:10931000EC4100201642002073B5054680885D4C64
:1093200004F032FA0646A88804F02EFA2B88262B81
:109330003CD8172B16D8102B4DD0112B67D0022EEE
:1093400003D0637813F00A0F02D0284605F0E2FA42
:1093500063785B0740F19B80284602B0BDE870400F
:10936000FDF7B8BB183B0E2BE9D801A252F823F049
:10937000759402003F9302003F930200659402003F
:109380003F9302003F9302003F9302003F9302008D
:109390003F930200239402003F9302003F94020097
:1093A0003F9302003F9302004F940200552B66D07A
:1093B0000AD83B2B0AD0522BC1D10023A0881A46D1
:1093C0001946FFF76DFE35E0562BB8D1A88813215A
:1093D000FFF756FE2EE0002384F83930A368002BF7
:1093E0000ADBE268002A07DB217C012393404FF06F
:1093F000A04249B1C2F80835AB88A380002384F8A5
:109400003B30042323709AE7C2F80C35F4E7FFF7EA
:1094100055FE4FF6FF73A38002232370FFF7FEFE75
:109420008DE70023A8888DF8003069468DF801305B
:10943000FFF732FE002882D0FDF7C4FC7FE7002250
:10944000A8886946CDE90022FFF728FEF2E72B7ACB
:10945000013B012B3FF673AF002384F83930FDF751
:109460000DFB6CE72B7A012B7FF469AF002384F8A6
:109470003B3064E70849A088FFF70CFEDAE70228D2
:109480003FF45DAFA18EA888FFF70CFED2E702B0D3
:1094900070BD00BF14420020E04B00202DE9FF41C9
:1094A000604E614D042304461822002106F1140089
:1094B0008DF80F3010F07EFE96F83A305B4A002BA4
:1094C0005B4B08BF98465B4B08BF1D46237818BF0F
:1094D000904659071AD5E36B002B14BF05230623CA
:1094E0008DF80F30237F002B14BF06230123337523
:1094F00001230DF10F021946284605F098F9074699
:1095000060B90027384604B0BDE8F081DA07EFD52E
:10951000237F002B14BF0A230423E8E7E38A33B137
:10952000022304F116021921284605F080F9E268A9
:10953000002A74D01046019210F052FF0346D5E97C
:1095400000101E2BA1EB0001019AA1F1020101D82C
:109550008B4262D91E290B4628BF1E2308212846AC
:1095600005F065F90028CCD0237F002B14BF2846D6
:109570004046616B31B123785B0703D594F8322004
:1095800005F067F9236A73B1626AFF210232284647
:1095900005F014F90028B4D0238A4380D4E90812D6
:1095A000043010F0DFFDA36A73B1E26AFF210232DA
:1095B000404605F003F90028A3D0238A4380D4E96C
:1095C0000A12043010F0CEFDA26B4FF47A71002322
:1095D0004A43B36140F27123B2FBF3F2E36BF261F1
:1095E0004B4342F21072B3FBF2F333844FF48073B7
:1095F0001149124A3385022386F82A306B688B8022
:10960000A2F11200D8F804308B81FFF733FD002857
:109610003FF478AFFDF7D6FB74E709219FE72846B2
:10962000A7E700BF1442002008420020FC410020B0
:10963000D4410020E0410020EC41002028420020DD
:1096400010B5044692B00021402202A810F0B2FDED
:10965000A169C9B1143102A804F06BF9A16904A889
:1096600004F067F9A369996A11B106A804F061F9D9
:10967000A369D96A11B10AA804F05BF9A369196B4F
:1096800011B108A804F055F9238AADF80230638AB5
:10969000ADF8043094F83030CDF840D00122013BD1
:1096A0008DF80020042B15D8DFE803F0030E03101B
:1096B000120002238DF8443002A804F013FA08B116
:1096C000FDF780FB12B010BD0323F3E70423F1E79D
:1096D0000523EFE78DF84420EEE7000013B51F499E
:1096E0001F4803F059FC08B1FDF76CFB1D4C637873
:1096F0005A0723D5A18E1A4803F06AFC08B1FDF77A
:1097000061FB626B1A2A0CDDFE2AA8BFFE22033A17
:109710001348D2B24FF6FF7103F074FC08B1FDF7A5
:1097200051FB0023CDE900336946012302208DF867
:109730000030FFF7BBFC08B1FDF744FB63781B0763
:1097400009D5A18E064803F050FC20B102B0BDE857
:109750001040FDF737BB02B010BD00BFE99002001A
:10976000A44E00201442002010B590F8303088B08C
:109770000446052B07D8DFE803F0034B4E5154573E
:109780002B4B11221A700023CDE90133237858079F
:1097900019D5626CA36C4FF47A70424340F2E241F7
:1097A000434301A8B3FBF1F3ADF806304FF4C8739F
:1097B000B2FBF1F2ADF80A30ADF80420FFF766FC19
:1097C00008B1FDF7FFFA2378590717D514220021B5
:1097D00001A810F0EFFC4FF470234FF42032CDE9D4
:1097E000022303238DF81030124B069301A8124B6D
:1097F000079303F0BBFE08B1FDF7E4FAFDF770F93B
:10980000A36913B12046FFF71BFF012008B010BD6C
:10981000074B2122B6E7064B3122B3E7044B412226
:10982000B0E7034B1222ADE7014B2222AAE700BFAB
:10983000004E0020BD910200EB900200F0B585B013
:1098400005460C46002669460120009601F0B0FA54
:1098500008B1FDF7B7FA0423009A03960DEB030154
:109860000120CDE901668DF80430FFF71DFC08B139
:10987000FDF7A8FA0026EFB2AD1B18BF01250123A2
:10988000E4B2009A8DF8043001A94020CDE90266C7
:109890008DF805408DF806708DF80750FFF704FC31
:1098A00008B1FDF78FFA0123CDE901668DF8043088
:1098B000234B009A5B6B039601A92320ADF8063079
:1098C000FFF7F2FB08B1FDF77DFA00250123CDE992
:1098D00001553C448DF80430009A03954FF4A07371
:1098E00001A92020ADF808308DF80640FFF7DCFB19
:1098F00008B1FDF767FA40F6B833009A019301A961
:10990000A120CDE90255FFF7CFFB08B1FDF75AFAC8
:109910000023CDE901330393009A012301A9A0207C
:109920008DF80430FFF7C0FB08B1FDF74BFA68462D
:1099300001F098FA08B1FDF745FA012005B0F0BD35
:109940001442002010B5074C01226FF0270319467E
:109950001357834203DC0132092AF8D1194608461D
:1099600010BD00BFC0AA0300012817D9042817D9C9
:10997000092817D9132817D91D2817D9312817D91D
:109980004A2817D9632817D9952817D9F92817D93C
:10999000B0F5FA7F34BF0020012070470B207047DC
:1099A0000A20704709207047082070470720704739
:1099B0000620704705207047042070470320704739
:1099C00002207047F0B58A4D037F85F83A3004468F
:1099D000038A90F94C0094F94D106B82002294F8A0
:1099E0004E302A70471C89B085F83B2085F8392015
:1099F000A860E9602B7408D04E1C06D0CDE9002287
:109A00000123FEF765FBFFF759FB23786B70FF23FB
:109A1000AB704FF6FF73AB80B4F85830172B38BFDC
:109A200017236B6301F050FC636D2B633BB9714AE4
:109A300028211420FDF7ECF908B1FDF7C3F9002344
:109A400005936D4B1A7B002A57D110238DF81530E2
:109A500002238DF8163005A800F0C0FB08B1FDF711
:109A6000B1F92278D4E90101C2F38002FFF7E6FEE2
:109A7000A368002B18DDA36BB3B1E16871B1084690
:109A8000039110F0ADFC1E28A8BF1E2082B20399DE
:109A90005A48FFF7FDFA08B1FDF794F9E08AFFF79D
:109AA000F3FA08B1FDF78EF923785A0703D50021A0
:109AB0002046FFF759FEFFF711FEFDF727F894F84F
:109AC000307094F8316002F03FF908B1FDF77AF98F
:109AD00001238DF8183007238DF8193010238DF8E5
:109AE0001A3003238DF81B308DF81C30BB1E032B5E
:109AF00012D8DFE803F00B3E453E5869FFF734FF0C
:109B000001238DF817008DF81430A4E79DF8183064
:109B100043F002038DF8183006F00303012B34D014
:109B2000032B3BD0730748BF9DF8183006A844BFED
:109B300043F080038DF8183002F054F908B1FDF7B6
:109B400041F92F4802F036F908B1FDF73BF994F8D6
:109B50003030003B18BF012385F838306B7813F0A4
:109B6000050F3ED02046FFF799FCF0B9002009B060
:109B7000F0BD9DF8183023F0060343F00603C9E753
:109B80009DF8183043F00403C4E79DF8183023F023
:109B9000780343F028038DF81830C3E79DF8183098
:109BA00023F0780343F04803F5E7206DFFF7CAFE82
:109BB000A97802460120FFF765FA08B1FDF702F91E
:109BC000104BC02283F826234022C3F884215A6018
:109BD000D4E9180100F00AFC0028C7D001232B703B
:109BE000C5E7206DFFF7AEFEA97802460220E2E746
:109BF00014420020E04E0020A4420020004E00202D
:109C0000F190020000E100E010B50F4C2378012B29
:109C100018D1002384F8393002232370637813F0BD
:109C2000050F01D0FFF7FAFA236B13B104F073FEAE
:109C3000FAE7FDF775F900F0F1FB01F02DFFFFF7F2
:109C40003BFAF1E710BD00BF14420020084B196B2E
:109C500010B511B1BDE810400847064A0846FDF7A7
:109C6000FBF818B1BDE81040FDF7ACB810BD00BF5F
:109C700014420020B9910200A8DF7047AADF7047A4
:109C8000ACDF704762DF704766DF70470139042937
:109C90000FD8DFE801F00306080A0C002123037047
:109CA00070473123FBE74123F9E71223F7E722232B
:109CB000F5E71123F3E713B5ADF8003043680192DF
:109CC000502202FB01310024B1F842104089ADF866
:109CD00002406A46FFF7D4FF02B010BD38B5838852
:109CE0000633C518C25A03889A4204460DD1284645
:109CF000FFF7F4FFAA88A3881344A380AA88A91DAC
:109D00002846BDE8384010F02DBA38BD2DE9F3479C
:109D10000E88112E04460D4621D006D8012E7ED085
:109D2000102E19D002B0BDE8F087502E27D0572E44
:109D3000F8D142898B889A42F4D1002550262368B5
:109D4000AB42EFDD636806FB05339B6913B129461F
:109D5000204698470135F2E78B884381E2E74FF6CA
:109D6000FF73438100230568194650209D42D9DDC9
:109D7000626800FB0322013382F84010F6E70027F7
:109D800001F112082368BB42CCDD2A7B636806FB25
:109D900007F9062A4B4417D1D4F810A0B3F8423083
:109DA000BAF800209A4228D15046FFF797FF63681F
:109DB000BAF802204B440AF10601D3F81090BAF821
:109DC00004302046C84718E0EA88B3F848109142AA
:109DD00018D1298A022915D1404603F0A6FD6368EF
:109DE00003EB090258B1012182F840104B445A6933
:109DF0001AB193F84010204690470137C2E782F825
:109E00004000F3E7B3F842109142F6D1D3F8109036
:109E1000B9F1000FF1D02B8A00224146D1E7006949
:109E200000283FF47FAF62898B889A427FF47AAF33
:109E300000216269ADF806100090ADF8042010F022
:109E4000B9F960896946FFF71FFF00283FF46AAF40
:109E5000FCF7B8FF66E72DE9F04F4FF6FF7343813B
:109E60004B7895B004460D4663B18E1C00F10F018E
:109E70003046FFF707FF0746002840F0E6803046EF
:109E800000F002F9E37B8DF8123004F108026B8ACE
:109E9000ADF8103004A90120FFF7EEFE07460028B8
:109EA00040F0D3806B692360AB69636080466B6967
:109EB000434540F3C480502303FB08FB0DF10C091C
:109EC0006368009300211C220DA803EB0B06ADF87C
:109ED0000C1095F800A0ADF8081089F8021010F0E9
:109EE00069F94FF00003012262F342038DF80A3052
:109EF000F3680E936BB11846019310F071FA019B51
:109F00000130ADF83C00184610F06AFA0130ADF8A7
:109F10003E00B368D80613D59DF8343043F01003E3
:109F20008DF83430514611230DF109008DF80830B9
:109F3000FFF7ACFE51464846FFF7A8FE02AB12936E
:109F4000B368D90742BF9DF8342042F001028DF872
:109F5000342013F002036CD09DF83430514643F0A6
:109F6000020348468DF83430FFF790FEB36813F0D3
:109F70000C0261D01A0742BF9DF8342042F008025B
:109F80008DF834205B0748BF9DF83430514648BFF8
:109F900043F004030DF10D0048BF8DF83430FFF796
:109FA00075FEE37B8DF81630009BB26833F80B30FA
:109FB000ADF81430C2F30023C2F3C01143F0020322
:109FC00043EAC103C2F3801243EA02139DF80E2054
:109FD000208922F01F0213438DF80E300023CDE9B3
:109FE0000A3305ABCDE90839F36AADF82C30336B91
:109FF000ADF82830736B0C9308AA06AB0DA9FFF7D8
:10A000003DFEBDF81830A6F84230BDF81A30A6F86B
:10A010004630BDF81C30A6F84830BDF81E30A6F812
:10A020004A30B0B963685B4408F1010883F8400026
:10A030003DE78DF80C3099E78DF80D20B1E7EB691D
:10A0400023612B6A63616B6AE361384615B0BDE832
:10A05000F08F0746F9E7000070B50A4D0646002468
:10A060002B7C2BB110223146284610F06BF830B112
:10A070000134042C05F11105F2D14FF0FF342046D4
:10A0800070BD00BF5842002010B50446FFF7E4FF42
:10A0900040B200281DDA134B93F82120D2B193F877
:10A0A0003220CAB193F84320C2B9032000EB00125A
:10A0B000134401221A7404F11001224652F8044B91
:10A0C00043F8044B8A42F9D1074B1A68824200DAFE
:10A0D000186010BD0120E9E70220E7E74FF0FF30EC
:10A0E000F7E700BF5842002054420020032810B573
:10A0F0000ED8084B00EB0010034403F11002187C4B
:10A1000028B153F8044B41F8044B9342F9D110BDE8
:10A110000020FCE75842002010DF704711DF704735
:10A1200013B504460949684601F070FB019808B967
:10A1300002B010BDD0E900212046904718B1684612
:10A1400001F06EFBF2E71120F2E700BFD0AA030096
:10A1500013B504460749684601F058FB019B0BB94B
:10A1600002B010BD2046D3E900219047684601F0B7
:10A1700057FBF3E7E8AA0300084B9A6822B11A6874
:10A1800022F480021A607047054B4FF48002C3F836
:10A190008020BFF34F8FBFF36F8F7047B8530020FD
:10A1A00000E100E00B4991F816335A09EC23134102
:10A1B000DB0706D5084B9A683AB94FF480030B6069
:10A1C000704742F20200FCF7FDBD1A6842F48002BB
:10A1D0001A60704700E100E0B85300202DE9F34118
:10A1E000DFF8708098F8004005465CBB164F0126EA
:10A1F00020463E70FFF794FF11281FD02046FFF73E
:10A20000A7FF0DF107008DF8074000F035FE0F495C
:10A210002846FFF781FF0446B0FA80F0400988F82D
:10A2200000009DF8070000F04BFE3CB9084B3C7065
:10A230001C70FFF7B7FF3046FFF78AFF204602B0D9
:10A24000BDE8F0810824F9E75C530020E16D0200CD
:10A250005E5300205D530020F7B5194F3C7864BB76
:10A26000184E012520463570FFF75AFF112821D0DE
:10A270002046FFF76DFF144B8DF8034018680190DE
:10A280000DF1030000F0F8FD104901A8FFF744FFAD
:10A290000446B0FA80F0400938709DF8030000F0E1
:10A2A0000FFE3CB90A4B34701C70FFF77BFF284649
:10A2B000FFF74EFF204603B0F0BD0824FAE700BFC9
:10A2C0005D5300205C530020C9AA0300E16D020029
:10A2D0005E530020F7B5154F3B781BB3144E012099
:10A2E0003070FFF71DFF11284FF000051CD0022031
:10A2F000FFF72EFF0DF107008DF8075000F0BCFDB1
:10A30000FFF70CFF04469DF807003D7000F0D8FDF4
:10A310002CB903203470FFF72FFFFFF719FF2046F9
:10A3200003B0F0BD0824FAE72C46F8E75D5300209F
:10A330005C530020054B1B7833B1054B1B780BB1E8
:10A34000FFF7C8BFFFF788BF082070475C530020A5
:10A350005D530020014B1878704700BF5D5300200B
:10A3600007B50849684601F051FA019B13B903B0DB
:10A370005DF804FBD3E900209047684601F050FAED
:10A38000F3E700BFDCAA03004BDF70471FB50E4C9C
:10A3900001A8FFF7F9FF70B9214602A801F036FACB
:10A3A000039B002BF4D00198D3E90021904702A829
:10A3B00001F036FAF4E7052804D004B0BDE81040F7
:10A3C000FCF700BD04B010BDF4AA03000FF0B2BE4C
:10A3D000FEE7FEE7044B9A6BF1EE103A136C23F0A4
:10A3E0009F031364704700BF00EF00E008B548B951
:10A3F000084801230C22502100F020F8064B186079
:10A40000012008BD4F2902D901230C22F4E70020C6
:10A41000F7E700BF6453002060530020064B10B5DF
:10A42000186800F01EF828B1D0E90131BDE81040ED
:10A430000068184710BD00BF6053002080B103734F
:10A44000002303600361C0E905214FF0FF3343603F
:10A45000A1F12003B3FBF2F3836000F12003C36199
:10A460007047C0B14368002B14DB42688168531CFD
:10A470009942D8BF00230168BFF35B8F994208BFA0
:10A480004FF0FF334360BFF35B8F4369C06903FB49
:10A49000020070470020704770B4034611B970BCC9
:10A4A000FFF7DFBF20B14268002A01DB0C681CB94E
:10A4B0000020086070BC704702684568AA4204EB3F
:10A4C00005000FDD824202DC541B4FF0FF30BFF36A
:10A4D0005B8F5860BFF35B8F5A69D8690C6002FBD1
:10A4E0000500E7E79E688642DFBFB2FA82F25209B2
:10A4F0005042741BEBE700282CD0026843689A4254
:10A500000FD1037B2BBB43688268BFF35B8F0133A2
:10A510009A42D8BF00234360BFF35B8F03690133C6
:10A52000036102688168BFF35B8F531C9942D8BFF7
:10A5300000230360BFF35B8F4368002B04DABFF393
:10A540005B8F4260BFF35B8F4369C06903FB02000E
:10A5500070470020704773B504460D4621B902B01C
:10A56000BDE87040FFF7C7BF08B10B681BB90020FA
:10A57000286002B070BD0168426891420BD1027B35
:10A580000AB10020F5E701A90193FFF785FF2369D0
:10A59000019A13442361236862682E68934206EB94
:10A5A000030116DDA068884201DCC61A0021BFF352
:10A5B0005B8F002A2160BFF35B8F04DABFF35B8FF0
:10A5C0006360BFF35B8F6269E0692E6002FB03008A
:10A5D000CFE78A42DCBFD61A1146E8E74FF0FF33D7
:10A5E000BFF35B8F43600023BFF35B8FBFF35B8FD1
:10A5F0000360BFF35B8F70474368002B01DA80680C
:10A600007047026843689A420268436803DD8068C5
:10A61000801A184470479A42BDBF43680068181AF0
:10A62000002070474368002B0DDB426803689A42A4
:10A63000B9BF0368406842680368B1BF181A8068F0
:10A64000801AC0187047002070470023BFF35B8F4B
:10A650000370BFF35B8F704738B5034600F10C05FC
:10A660004FF00104BFF35B8FD5E84F2FC5E84C4F87
:10A67000BCF1000FF8D1BFF35B8FD2B242B99B6B34
:10A680009847044610B92846FFF7DFFF204638BD3B
:10A690000024FBE72DE9F84F04468A469846164603
:10A6A00032B3002B24DDD0F81090002500F10C0708
:10A6B0004FF0010BBFF35B8FD7E84F3FC7E842BFB6
:10A6C000002AF9D1BFF35B8FDBB23BB9E36A514695
:10A6D0002046984770B93846FFF7B7FFB9F1000F29
:10A6E00009F1FF3302DC2846BDE8F88F9946E1E71F
:10A6F0000025F8E742463146236B20469847636BB6
:10A700000546204698473846FFF79FFF002DE5DDB8
:10A71000E9E72DE9F047044688461F4616461AB376
:10A72000002B21DDD0F810A0002500F10C094146D6
:10A730002046FFF791FF68B13A463146E36B204669
:10A740009847636C0546204698474846FFF77DFFCB
:10A75000002D04DCBAF1000F0AF1FF3302DC2846B9
:10A76000BDE8F0879A46E2E70025F8E72DE9F84FC3
:10A77000DDF8288004460E4615461F46B8F1000F46
:10A7800033D00B9B002B30DDD0F810904FF0000A37
:10A7900000F10C0B31462046FFF75EFFC8B12DB12A
:10A7A000236C03B33A46294620469847E36A31466C
:10A7B00020469847236B0B9A414620469847626B88
:10A7C0008246204690475846FFF73FFFBAF1000FF8
:10A7D00004DCB9F1000F09F1FF3202DC5046BDE89C
:10A7E000F88F9146D6E7E36BDCE74FF0000AF5E718
:10A7F0002DE9F84F2DED028B00AF08EE101AD7E9C6
:10A800000CB906461D4611462AB90020BD46BDECCE
:10A81000028BBDE8F88F03EB0904002CF5DDE21D87
:10A8200022F00702ADEB020DD0F810801A46684600
:10A83000EA460FF097FCBBF1000F30D0B9F1000FE2
:10A840002DDD641B4C45A8BF4C46224659460DEBF6
:10A8500005000FF087FC2C444FF0000906F10C0BAB
:10A8600018EE101A3046FFF7F7FE70B1F36B514641
:10A87000224630469847726C81463046904758468B
:10A88000FFF7E3FEB9F1000F04DCB8F1000F08F1A7
:10A89000FF3206DCA945B8DBA9EB0500B6E72C467C
:10A8A000DAE79046DCE707B5837B0193437B0093AF
:10A8B000D0E90112037B0068FDF70AFC03B05DF8E4
:10A8C00004FB000038B50446002300283CD001609A
:10A8D0004260037243728372C37203734373837360
:10A8E000FFF7E1FF6368012404FA03F14FF0A0428F
:10A8F0009B001344C2F80C15D3F8000720F00300A6
:10A90000C3F80007D3F8000740F00200C3F80007BF
:10A910000E48C2F818150568A5402D430CD0280034
:10A9200000BF00BF00BF00BF00BF00BF00BF00BF2F
:10A9300000BF00BF0138F3DCD3F8000720F00300AC
:10A94000C3F80007C2F81C15204638BD9C42002001
:10A9500070B5A0B1456801244FF0A04604FA05F592
:10A96000C6F80C5542600022016002724272827287
:10A97000C272047342738273FFF795FF204670BD65
:10A980000123013AF0B503FA02F2EFF3108C72B62C
:10A990002B4F40683E686425754383404FF0A044C8
:10A9A000C4F80C35002A34D036430CD0300000BF38
:10A9B00000BF00BF00BF00BF00BF00BF00BF00BF9F
:10A9C00000BF0138F3DCC4F8083536430CD0300042
:10A9D00000BF00BF00BF00BF00BF00BF00BF00BF7F
:10A9E00000BF00BF0138F3DC0A4208BFC4F80C35D1
:10A9F0002D430CD0280000BF00BF00BF00BF00BF28
:10AA000000BF00BF00BF00BF00BF0138F3DC520829
:10AA1000C6E78CF310883B684FF47A7253431B43AC
:10AA20000CD0180000BF00BF00BF00BF00BF00BFB8
:10AA300000BF00BF00BF00BF0138F3DCF0BD00BFA6
:10AA40009C4200204FF08053D3F83001421C04BFD9
:10AA50004FF0704393F8E00F831F584258417047FE
:10AA60004FF0704393F8E02F062A09D1D3F8E83F5E
:10AA7000C3F30313033B042B02D8024AD05C704794
:10AA8000002070470FAB0300024AD2F80034002BBD
:10AA9000FBD0704700E00140014B024A1A6070474A
:10AAA000A04200200090D00310B5FFF7CBFF40B1CB
:10AAB0004FF08053944AD3F82433C3F30423C2F8ED
:10AAC0004035FFF7CDFF10B1904B914A5A67FFF721
:10AAD000B9FF48B14FF080534FF08042D3F8443271
:10AAE000C3F34233C2F83C35FFF7BAFF30B1894AAD
:10AAF000D2F8FC3023F08073C2F8FC30FFF7A2FFDD
:10AB000040B14FF080430022C3F80C21C3F810215C
:10AB1000C3F83825FFF7A4FF20B14FF0804303228C
:10AB2000C3F8A025FFF79CFF60B17B4B0522C3F85B
:10AB300010260122C3F888260022C3F818263F22D7
:10AB4000C3F814264FF08053D3F83021511C09BFAD
:10AB50004FF07043D3F8343193F8E02FD3F8E83F47
:10AB600008BFC3F30313062A4DD1033B042B03D8BC
:10AB70006A4AD35C002B46D04FF08052684BD2F823
:10AB80000414C3F82015D2F80814C3F82415D2F819
:10AB90000C14C3F82815D2F81014C3F82C15D2F8E9
:10ABA0001414C3F83015D2F81814C3F83415D2F8B9
:10ABB0001C14C3F84015D2F82014C3F84415D2F879
:10ABC0002414C3F84815D2F82814C3F84C15D2F849
:10ABD0002C14C3F85015D2F83014C3F85415D2F819
:10ABE0003414C3F86015D2F83814C3F86415D2F8D9
:10ABF0003C14C3F86815D2F84014C3F86C15D2F8A9
:10AC00004424C3F87025FFF71DFF48B14FF080536F
:10AC10004FF08042D3F8583203F04F03C2F8E43EBD
:10AC2000FFF710FF48B14FF08043D3F80024D2075C
:10AC300044BF6FF00102C3F800244FF08053D3F8F3
:10AC40003021062A0ED1D3F83431033B042B02D82D
:10AC5000344AD35C33B1344AD2F83C3743F480638E
:10AC6000C2F83C372B4AD2F8883043F47003C2F85C
:10AC70008830BFF34F8FBFF36F8F4FF08053D3F8FF
:10AC80003021062A0FD1D3F83431033B042B02D8EC
:10AC9000264AD35C3BB14FF01023D3F808224FF083
:10ACA0008043C3F858254FF01023D3F80022002A20
:10ACB00003DBD3F80432002B22DA1D4901234FF0C5
:10ACC0001020C1F804351524FFF7DEFEC0F800425D
:10ACD000FFF7DAFEC0F80442FFF7D6FE0023C1F802
:10ACE0000435FFF7D1FEBFF34F8F0A49114BCA68F5
:10ACF00002F4E0621343CB60BFF34F8F00BFFDE768
:10AD00000D4B0E4A1A6010BD0030014000C00740D4
:10AD10000DF0ADBA00ED00E00050004000AB0300C4
:10AD200000C0004005AB0300001000400AAB030068
:10AD300000E001400400FA05A04200200090D0038A
:10AD400060DF704769DF704761DF704730B5134DD2
:10AD5000ADF2144D40F204440DF1020103A8ADF828
:10AD60000240FFF7F1FF70B9294601A800F04EFD3F
:10AD7000029B002BF0D003A8D3E90021904701A843
:10AD800000F04EFDF4E7052805D00DF2144DBDE8A6
:10AD90003040FCF717B80DF2144D30BD14AB030072
:10ADA000024B1B780BB1FFF7D1BF7047B4530020A3
:10ADB000F0B5064685B00D4600294FD00024284A3C
:10ADC0000A60CDE9014406238DF8040001A9202082
:10ADD0008DF80630ADF8083005270394FFF7B2FF71
:10ADE00040F201132A68039401A94020CDE90144EF
:10ADF000ADF806308DF80570FFF7A4FF4FF400732F
:10AE00002A68039401A92320CDE90144ADF8063056
:10AE10008DF80460FFF796FF2A68039401A90120CA
:10AE2000CDE901448DF80470FFF78CFF4FF4B06357
:10AE30002A68019301A9A120CDE90244FFF782FF0E
:10AE400001232A68039401A9A020CDE901448DF8CB
:10AE50000430FFF777FF204605B0F0BD0E20FBE77A
:10AE60000040002008B5FFF76BFF10B9014B01222D
:10AE70001A7008BDB453002070B5EFF3108672B697
:10AE80000C4A946801239CB993600B4B0B4DD3F88B
:10AE9000801029401160C3F88050D3F884105160AD
:10AEA0004FF0FF32C3F88420047006B962B670BD5B
:10AEB0000370FAE7B853002000E100E0FC06FFBD94
:10AEC000084B9A6810B55AB150B9EFF3108172B6B9
:10AED000054A1C6814605C685460986001B962B6E9
:10AEE00010BD00BFB853002000E100E0094B5A78C4
:10AEF00099780132D2B2914208BF0022197891426A
:10AF00001FBF02705878182202FB003014BF0430B3
:10AF100000207047C453002073B5054600240DF18E
:10AF200007000E468DF80740FFF7A6FF0DF106005B
:10AF3000FFF7DCFF90B10670094B9DF806204560D5
:10AF40005A709DF80700FFF7BBFF24B9054B4FF47B
:10AF50000012C3F80021204602B070BD0424F0E7BF
:10AF6000C453002000E100E0024B4FF43C6043F08A
:10AF70000103184720AB0300F8B51F4B1F491B689E
:10AF80000025C1F84051C1F84451C1F84851C1F8F9
:10AF90004C51C1F80051C1F804514BB3D1F80445EC
:10AFA00017490968641A24F07F442F461A68A242A0
:10AFB00009D8A41A15441A7CDE691AB1D3E9052010
:10AFC0001F749047AEB90F4A0F4B11781B788B4214
:10AFD00005D10133DBB2022B08BF002313701278B6
:10AFE0000A4B43F822500A4B4FF40012C3F80021D9
:10AFF000F8BD3346DAE700BFE454002000100140FA
:10B00000E0540020DD540020DC540020D454002003
:10B0100000E100E02DE9F04FA04AA149137809783A
:10B02000A04D994285B03CD00133DBB2022B08BF62
:10B03000002313709C4912789C4B0F6853F8220030
:10B040003B1823F07F4300220B602B681646144602
:10B05000944613B942B12B6006E0196881420ED9BB
:10B0600002B12B60091A196001272B68DFF844A28E
:10B0700001934FF00008BEB9DFF840B260E0401A1B
:10B080000C44D968D3F81CE0C3F800C031B13A19B8
:10B0900022F07F42C3E90121DE611E467346012290
:10B0A000D7E700263746E0E73446F6697E4B60680E
:10B0B0001B68DFF80CC2A168C21A22F07F42624509
:10B0C00000F2A6800A442260012222742A6800232A
:10B0D000C4E90133E361002A40F0A3802C60CAE791
:10B0E0009BF802105A1CD2B291428BF8002004BF88
:10B0F00000228BF80020182202FB03B32A6819797A
:10B100009C68022975D003297FD0012918D1207CA1
:10B11000B0B9D3E90312A2605A69E2609A69644B3C
:10B12000A2611A78002A18BF01466160BEE78C420E
:10B1300000F091808946C9690029F8D10023237461
:10B140009BF800309BF801209A42C9D12B68B8F1D6
:10B15000000F04D1019A9A4201D1002F43D0002B55
:10B1600041D0D3F800A0534D4F4BD5F804751C685F
:10B17000DFF850813E1B98F8003026F07F460336FA
:10B180009BB94FF48033C5F84433C5F804334A4BB8
:10B190004FF40032C3F880211A604FF00109C5F85E
:10B1A0000090FFF7E1FE88F80090B2452CBF5444B0
:10B1B000A41924F07F44C5F84045D5F80435DB1BBD
:10B1C00023F07F43E41B033324F07F44A3420AD9D6
:10B1D000D5F80435C5F84035FFF7C6FE364B4FF4B9
:10B1E0000032C3F80021324B00221A7005B0BDE8CE
:10B1F000F08F114691469FE71174D2690123002A0E
:10B20000FAD1002B9CD02A609AE700231946F6E772
:10B210001B1A23F07F438B4234BFCB1A00232360D9
:10B2200052E721681368994213D85B1A1360E261F0
:10B2300054E7091AD8691A4638B103461868884293
:10B24000F7D3401A1860184613462160E061DC61AC
:10B2500011E71346F2E74C4511D1D3692B6073B95E
:10B26000DFF844E00120CDE90212CAF80800CEF868
:10B2700000300F4B1870FFF777FEDDE902120B6804
:10B28000C969C9F81C1011B1086803440B602B6828
:10B29000934218BF4FF0010850E700BFDC54002074
:10B2A000DD540020E4540020E0540020D454002059
:10B2B000D05400200010014000E100E0C453002001
:10B2C000FEFF7F00D1540020F8B51B4E4FF4003331
:10B2D000C6F88030BFF34F8FBFF36F8F174D184FF5
:10B2E0004FF480330124C5F84833C5F808336C6047
:10B2F000FFF73AFEAC6000243C60FFF735FE114BCF
:10B300001C70114B0B221C809A70104B1C60104B50
:10B310001C70104B4FF400121C70C023C6F8802123
:10B3200086F815333260C5F8084586F81133D5F82C
:10B3300004353B602046F8BD00E100E0001001400C
:10B34000E0540020D1540020C4530020E4540020D5
:10B35000DC540020DD540020074B9B784BB132B108
:10B3600028B10368187C20B959745A6170470720C6
:10B3700070470820704700BFC45300202DE9F743F1
:10B38000DFF88C8098F8023005460E461746BBB3AE
:10B39000B0B31C4B4A1F9A4230D8436983B3437CF5
:10B3A0000024012B0DF107000CBF8946A1468DF842
:10B3B0000740FFF761FD0DF10600FFF797FDD8B1DB
:10B3C00001230370104B4560D3F80435C0E904979E
:10B3D000C0E902369DF8063088F801309DF8070074
:10B3E000FFF76EFD24B9094B4FF40012C3F800219A
:10B3F000204603B0BDE8F0830424EFE70724F7E715
:10B400000824F5E7FAFFFF000010014000E100E02A
:10B41000C4530020064A92783AB130B1426922B151
:10B42000002202740221FFF777BD0820704700BF99
:10B43000C45300200B4610B4114628B123B1036059
:10B440005DF8044B1B6818470E205DF8044B7047ED
:10B450002DE9F04308B302B3D0F800E0BEF1000FCD
:10B460001ED0FBB14568D5F80490B3FBF9F509FB94
:10B470001535BDB942EA010C1CF0030F14D1C568A3
:10B48000A94211D34D1EEC180569AC420CD8DEF868
:10B490000C40A446BDE8F04360470E20BDE8F083B1
:10B4A0000820FBE70920F9E71020F7E7F0B5D8B14D
:10B4B000D0F800C0BCF1000F18D0CAB14568D5F86B
:10B4C00000E00EF1FF350D4214D1C568A94211D339
:10B4D0004D1E0EFB02540569AC420BD8DCF810403F
:10B4E000A446BDE8F04060470E20F0BD0820FCE710
:10B4F0000920FAE71020F8E729DF704728DF7047B6
:10B5000070B503689E6886B004460D466EB114227D
:10B51000002168460EF04EFEA3680593237901953D
:10B520002BB1012B0DD06846B04706B070BD01238A
:10B530008DF8003023690293E368039363690493F1
:10B54000F1E702238DF80030E3681B030293F5E76F
:10B550000846704700207047024B187A003818BF21
:10B5600001207047BC550020034B187A0122B0FA25
:10B5700080F05A7440097047BC55002008B5104649
:10B580001A460EF0EFFD002008BD000008B5142299
:10B59000002104480EF00EFE0348FCF7F6FB0020E5
:10B5A00008BD00BFBC550020AC55002010B5094CAB
:10B5B000094B43602046FCF7D2FC40B9FEF7CAFEB7
:10B5C000064920741C230648C422FCF7CBFB00204C
:10B5D00010BD00BFBC55002028AB0300E85400207C
:10B5E000AC55002038B5234D234C2B7A3BB9234969
:10B5F0002348FCF726FC206008B9686038BD0223A8
:10B6000024682B72237973B1012B24D020460321A7
:10B61000FFF776FF00232B726B6018491848BDE8CE
:10B620003840FCF739BCD4E90523D21AB2F5805F63
:10B63000D4E9031028BF4FF480529208012A38BF82
:10B64000012219441844FFF757FF50B11128DDD1EA
:10B6500001232B72D2E7D4E903031844FFF74EFF0E
:10B66000F3E72B7C002BC9D1BDE83840022000F065
:10B6700009B800BFBC550020D4550020D05500208B
:10B68000AC55002038B5234C237A002B41D0022B37
:10B6900009D1032830D0204B00221B68E2601A79C0
:10B6A0003AB1012A22D0637C7BBBBDE83840FFF76A
:10B6B00099BFD3E905128D1AB5F5805F94BF521971
:10B6C00002F580529A619142EDD102284FF00003B9
:10B6D00008BF19462372104B18BF0D211868FFF7D9
:10B6E0000FFF0E490E48FCF7D7FBDCE71A69013261
:10B6F0001A615B699A42E7E7E3680133082B01D8D6
:10B70000E360D0E70023E360DFE7BDE83840FEF701
:10B7100011BE38BDBC550020D4550020D0550020A6
:10B72000AC550020831E012B01D8FFF7ABBF70473B
:10B7300000F0FD03012B08D1044B00225A74421E75
:10B74000504250411874FFF74DBF7047BC55002060
:10B7500010B5064C201DFCF702FC28B9637C1BB910
:10B76000BDE81040FFF73EBF10BD00BFBC55002034
:10B770002DE9F34180460D46104801A916461F46A3
:10B78000FCF725FB0446B0B11822002104300EF06E
:10B7900011FD2D0B0123237101A90848C4F8008075
:10B7A000A760E5606661FCF73CFBFFF7D1FF002076
:10B7B00002B0BDE8F0810420FAE700BFAC550020DC
:10B7C0002DE9F34180460F460F4801A916461D4654
:10B7D000FCF7FDFA0446A8B11822002104300EF04F
:10B7E000E9FC089BA36001A9C4E903670648C4F803
:10B7F00000806561FCF715FBFFF7AAFF002002B08F
:10B80000BDE8F0810420FAE7AC5500200B684A68D7
:10B810004360934208BF0023016008BF4360704744
:10B82000436843B10268916852680B449342436095
:10B8300004BF00234360704700F03EB80021084673
:10B8400000F000B870B506460D466A46134B9A42A2
:10B8500019D303F0F3FAC8B1114C236823B1114B8B
:10B860001A68114B9A4214D0AEB9A5B90F481049C5
:10B87000206003F0D1F828B90A4B0B4A1A602368FC
:10B880000C4A1A6070BD48F21950FBE74FF40540AE
:10B89000F8E70020F6E748F21750F3E7985D00203C
:10B8A000E4550020DC5500206572E54BD85500209A
:10B8B000E05500206169614D094B0A4A19689142BF
:10B8C0000AD1094A1068094A0168914204D100224C
:10B8D00002601A6003F0A3B848F20250704700BF3C
:10B8E000DC5500206572E54BE45500206169614D2F
:10B8F00010B46C46104B9C4210D302B199B10F4B5F
:10B900001C680F4B9C4211D198B90E485DF8044B4E
:10B91000006813460A460C4903F08DB848F21950E6
:10B920005DF8044B704748F21050F9E748F20250B6
:10B93000F6E748F21750F3E7985D0020DC55002049
:10B940006572E54BE4550020E055002073B51346C1
:10B950000D460446F8B111B3144A1168144A9142D5
:10B9600020D1144E01932A460146306803F05CF85A
:10B9700048F27152904210D1002211461046FFF752
:10B98000B7FF50B9019B30682A46214602B0BDE896
:10B99000704003F049B848F2135002B070BD48F24D
:10B9A0001450FAE748F20250F7E700BFDC550020D8
:10B9B0006572E54BE45500200122FFF7C7BF76DF33
:10B9C000704780DF704781DF704784DF7047000079
:10B9D00013B5402314490193002291F82D3003BB85
:10B9E0000132062A01F13001F7D1104A104C1370D0
:10B9F0002370104A104B1149114803F001F970B936
:10BA000010490D4801AA03F065F940B90D4A0B48E9
:10BA10004023114603F080F908B90123237002B0D6
:10BA200010BD1120FBE700BF845600203C560020CB
:10BA300018560020A4570020B8570020D0AB0300B0
:10BA4000145600204456002008B54FF4907200218F
:10BA500008480EF0AFFB02F05FFF50B903F0D2F9D7
:10BA600038B9054B1870054B1870BDE80840FFF752
:10BA7000AFBF08BD84560020E855002018560020AE
:10BA8000034B04481B78002B08BF0020704700BF01
:10BA900018560020445600202DE9FF47244B1D78FE
:10BAA000002D42D1234C244F244EDFF89C8094F883
:10BAB0002C301FFA85F943B90135062D04F1300405
:10BAC000F5D1002004B0BDE8F0873B784FF0200AA4
:10BAD000CDF80CA03BB394F82D30FBB103AB009331
:10BAE000174833462246414603F038F9B0B91349A6
:10BAF00014485346324603F00FF918B93146484608
:10BB0000FFF761FF002384F82C3084F82D3084F88F
:10BB10002E3084F82F300028CED0D3E720213046B5
:10BB2000FFF74AFFE9E70320ECE70320CAE700BF7D
:10BB3000E855002084560020185600201C5600208E
:10BB400010560020D0AB0300A457002070B5038826
:10BB50008488113B92B00546072B0BD8DFE803F031
:10BB6000040A0A0A160A0C1E3E4B302202FB043459
:10BB70000023E36212B070BD027A012AFAD1394B78
:10BB8000302101FB043484F82E20F3E7354B3022BA
:10BB900002FB0434012384F82F30EBE7037BDB073F
:10BBA00014D5314B31491B78002B314B1A6808BF33
:10BBB000002122B12046019190470199024620467A
:10BBC000FFF703FF10B12B4B01221A70A9682A4816
:10BBD000019120220EF0B6FA019910BB214B3022C0
:10BBE00002FB043393F82E2083F82D0062B183F812
:10BBF0002E00024601462046FFF7E3FE0028B9D09A
:10BC00001C4B01221A70B5E793F82F10F1B183F89D
:10BC10002F2013212046FFF7D2FE30F00803EFD18A
:10BC2000A8E71648402302AA03F076F80646002843
:10BC3000E6D10C4D1148302101FB0455402302AAE6
:10BC4000294603F023F848B185F82D60054B3022D2
:10BC500002FB0434012384F82C308BE7012385F8A0
:10BC60002D30F3E7845600203C560020E955002093
:10BC700040560020E855002044560020D0AB030079
:10BC8000F8B5074D074E074600243378A34200DC81
:10BC9000F8BD55F8043B384698470134F5E700BF36
:10BCA000EC570020FB57002070B5204B1B7886B066
:10BCB0000446002B37D0038885881D4E102B2DD1CC
:10BCC0000021142201A88DF803100EF073FA01234D
:10BCD0008DF804304FF6FF73ADF8083004F1080317
