:0200000270008C
:10700000000001201174070085C6070087C607002D
:1070100085C6070085C6070085C60700000000007A
:1070200000000000000000000000000085C607000E
:1070300085C607000000000085C6070085C607005A
:1070400085C6070085C6070085C6070085C60700F8
:1070500085C6070085C607000DC6070085C6070060
:107060000000000000000000000000000000000020
:1070700085C6070085C6070085C6070085C60700C8
:107080004DAA07000000000085C6070085C607005E
:1070900085C6070085C607003977070085C6070043
:1070A00085C6070085C6070000000000000000003C
:1070B00085C6070085C6070000000000000000002C
:1070C00085C6070085C6070085C6070085C6070078
:1070D00001A7070085C6070089C607000000000059
:1070E00000000000000000000000000000000000A0
:1070F0000000000000000000000000000000000090
:10710000000000000000000000000000000000007F
:10711000000000000000000000000000000000006F
:10712000000000000000000000000000000000005F
:10713000000000000000000000000000000000004F
:10714000000000000000000000000000000000003F
:10715000000000000000000000000000000000002F
:10716000000000000000000000000000000000001F
:10717000000000000000000000000000000000000F
:1071800000000000000000000000000000000000FF
:1071900000000000FFFFFFFFFFFFFFFFFFFFFFFFFB
:1071A000FFFFFFFFFFFFFFFFFFFFFFFFFFFFFFFFEF
:1071B000FFFFFFFFFFFFFFFFFFFFFFFFFFFFFFFFDF
:1071C000FFFFFFFFFFFFFFFFFFFFFFFFFFFFFFFFCF
:1071D000FFFFFFFFFFFFFFFFFFFFFFFFFFFFFFFFBF
:10740000FFFFFFFFFFFFFFFFFFFFFFFFFEFFFFFF8D
:107410000F481049884208B502D00F4A05F006FB14
:107420000E4A0F48002105F00FFB05F06BF905F03F
:1074300061F90C4B0C4A1B6803F5F40303F59053F8
:10744000B3FBF2F3094A136000F042F8FEE700BF15
:107450006859002090CF0700B80000005C260000AB
:10746000205A0020A85900200024F400A45900202C
:10747000F8B500BFF8BC08BC9E467047F8B500BF21
:10748000F8BC08BC9E46704710B5054C237833B94C
:10749000044B13B10448AFF300800123237010BDE7
:1074A000205A00200000000090CF070008B5034BD1
:1074B0001BB103490348AFF3008008BD0000000082
:1074C000245A002090CF0700A3F5803A704700BFF0
:1074D000174B002B08BF134B9D46FFF7F5FF00210C
:1074E0008B460F461348144A121A05F0ADFA0E4B9C
:1074F000002B00D098470D4B002B00D09847002060
:10750000002104000D000D48002802D00C48AFF304
:10751000008005F057FA2000290003F007FB05F072
:107520003DFA00BF0000080000000000000000005D
:1075300000000120205A00207C8000200000000074
:107540000000000010DF704711DF704713B50446DC
:107550000949684604F000FF019808B902B010BD5F
:10756000D0E900212046904718B1684604F0FEFE9D
:10757000F2E71120F2E700BF60CA070013B5044626
:107580000749684604F0E8FE019B0BB902B010BD44
:107590002046D3E900219047684604F0E7FEF3E770
:1075A00078CA0700084B9A6822B11A6822F4800250
:1075B0001A607047054B4FF48002C3F88020BFF378
:1075C0004F8FBFF36F8F7047CC7F002000E100E04A
:1075D0000B4991F816335A09EC231341DB0706D502
:1075E000084B9A683AB94FF480030B60704742F237
:1075F000020003F098BA1A6842F480021A607047D9
:1076000000E100E0CC7F0020F7B5194F3C7864BB67
:10761000184E012520463570FFF798FF112821D01C
:107620002046FFF7ABFF144B8DF80340186801901C
:107630000DF1030004F030FC104901A8FFF782FFB0
:107640000446B0FA80F0400938709DF8030004F059
:1076500047FC3CB90A4B34701C70FFF7B9FF284651
:10766000FFF78CFF204603B0F0BD0824FAE700BF07
:107670003D5A00203C5A00205CCA070021AB07009D
:107680003E5A0020F7B5154F3B781BB3144E01202E
:107690003070FFF75BFF11284FF000051CD002206F
:1076A000FFF76CFF0DF107008DF8075004F0F4FBB5
:1076B000FFF74AFF04469DF807003D7004F010FCF8
:1076C0002CB903203470FFF76DFFFFF757FF2046FA
:1076D00003B0F0BD0824FAE72C46F8E73D5A002035
:1076E0003C5A0020054B1B7833B1054B1B780BB17E
:1076F000FFF7C8BFFFF788BF082070473C5A00203B
:107700003D5A0020014B1878704700BF3D5A0020B9
:1077100007B50849684604F01FFE019B13B903B082
:107720005DF804FBD3E900209047684604F01EFE94
:10773000F3E700BF6CCA0700FFF7EABF60DF7047DE
:1077400069DF704761DF704730B5134DADF5017DDE
:107750004FF4FA740DF1020103A8ADF80240FFF7EF
:10776000F1FF70B9294601A804F0F6FD029B002B39
:10777000F0D003A8D3E90021904701A804F0F6FD5A
:10778000F4E7052805D00DF5017DBDE8304003F094
:10779000CAB90DF5017D30BD84CA0700024B1B78C4
:1077A0000BB1FFF7D1BF70473F5A002018B1034B10
:1077B0000360002070470E20704700BF685900200A
:1077C000F0B5074685B00D46002947D00024244A6D
:1077D0000A60CDE90144012606238DF8040001A9C1
:1077E0002020ADF8083003948DF80660FFF7A8FF5D
:1077F0002A68039401A94020CDE901448DF8056071
:10780000FFF79EFFF7232A68039401A92320CDE9FF
:107810000144ADF806308DF80470FFF791FF2A6837
:10782000039401A93046CDE901448DF80460FFF7C7
:1078300087FF4FF4B0632A68019301A9A120CDE925
:107840000244FFF77DFF2A68039401A9A020CDE937
:107850000144FFF775FF204605B0F0BD0E20FBE7A1
:107860006859002008B5FFF769FF10B9014B0122E4
:107870001A7008BD3F5A00204BDF70471FB50E4CF1
:1078800001A8FFF7F9FF70B9214602A804F064FDD2
:10789000039B002BF4D00198D3E90021904702A864
:1078A00004F064FDF4E7052804D004B0BDE81040FE
:1078B00003F039B904B010BD90CA07000023C0E935
:1078C00002328B881A44B1F9063002611A44C0E9C9
:1078D000001142610888003818BF012070474268D3
:1078E000118838B50346002937D0148A02F11001F7
:1078F00041602CB9C2680168FFF7E0FF204638BD3F
:107900009078118900F03005302D14D1947C04F06A
:107910003004302C1BD190881969091A1961002193
:10792000908AB2F91620084419690144196111447A
:1079300059610120E3E700F0F004202C07D15089C1
:107940004143002DECD1986801309860E8E700F0E1
:10795000C000802808BF0421F3E70846CFE770B5D0
:10796000466804460D4663681A88AA4204D19B788B
:1079700003F00F03082B07D12046FFF7B0FF636821
:10798000B342F0D1002070BD0120FCE743681A44E7
:10799000426011B101399A4201D10120704713F8B8
:1079A000010B01F8010FF6E770B54568AA7802F0FF
:1079B0000F06082E86B003461FD103691C680026F7
:1079C0000CB906B070BD236862689D6826732946AD
:1079D0006846FFF773FF6368049304F10C03059393
:1079E000AB7803F0C003802B08BF231D684608BF97
:1079F0000493FFF7D9FFA468E2E712F0C00122D197
:107A000002F0300010280CD15A691170072EEC6872
:107A100018690BD10146204606B0BDE8704000F061
:107A20001AB89006F2D55B691980CAE72A892146FF
:107A300024B106B0BDE8704004F0F8BF06B0BDE860
:107A4000704005F001B88029BBD100690021920681
:107A50000160B6D5E7E77FB50A4601466846FFF7FD
:107A60002DFF30B16846FFF79FFF6846FFF737FFED
:107A7000F7E707B05DF804FB836810B504460BB95F
:107A8000002010BD0368012298470028F8D0A368A1
:107A9000013BA360F5E72DE9F3410F460DF1070126
:107AA0008046FFF7E9FF054620B90025284602B0C9
:107AB000BDE8F0819DF907309DF80740002B13DAEF
:107AC00004F07F0407260DF107014046FFF7D4FFBD
:107AD0000028EAD09DF8072002F07F03B3401C4342
:107AE000130606F1070601D43C60DFE7232EEAD136
:107AF000DBE7000030B5044685B01546A9B9026839
:107B0000114B9A4211D0102D06D82A4669462046BC
:107B1000FFF7F0FF05B030BD102269462046FFF7A1
:107B2000E9FF0028F6D0103DEDE7A368AB4201D293
:107B30000020EFE723682A46204698470028F7D020
:107B4000A268521BA260E5E78D790700F7B50E46E3
:107B500001A907461546FFF79EFFA0B1019A511CE7
:107B60004FF0000404D2B37803F0C003802B01D19E
:107B7000204608E033898B42FAD329463846FFF77E
:107B8000B9FF019BEC5403B0F0BD73B50D4601A9DC
:107B900006461446FFF77FFF98B1019AB2F5803F81
:107BA00011D2AB7803F0C003802B02F102010AD09E
:107BB0002B898B4207D32146304621F8022BFFF751
:107BC00099FF02B070BD0020FBE7000010B5034C28
:107BD00082600022C0E90041C26010BD8D790700BB
:107BE0002DE9F341002580460E462F462C460DF127
:107BF00007014046FFF740FFC0B19DF807C0A4F160
:107C000020030CF07F02C4F1200102FA03F322FAF0
:107C100001F10B43A2401CF0800F45EA020547EA40
:107C2000030704F1070404D1C6E9005702B0BDE818
:107C3000F081462CDBD10020F8E737B50D466946C8
:107C40001446FFF7CDFF70B12B89082B0DD1DDE96C
:107C50000032C4E90032DDE90001914208BF9842D8
:107C60000CBF0120002003B030BD042B03D1009BCA
:107C700023600022EFE7022B03D1009B23809BB2FD
:107C8000F7E7012B04D1009B237003F0FF03F0E71B
:107C90000020E8E737B50D4669461446FFF7A0FF18
:107CA00030B12B89082BDDE9001203D1C4E90012A1
:107CB00003B030BD042B4FEAE17009D121600B46BF
:107CC0000246824208BF8B420CBF01200020EFE732
:107CD000022B03D10BB22380DA17F2E7012B02D17A
:107CE0004BB22370F8E70020E2E7F7B51F46002308
:107CF0003B700D460B70136001A904461646FFF752
:107D0000CAFE30B9A36813B901233B70002003B049
:107D1000F0BD019C002CF7D0E30804F007043360A9
:107D20002C70F4E713B50446052925D8DFE801F0E7
:107D3000030F17242422012201A92046FFF7DAFEAF
:107D400018B19DF90430002BF5DB02B010BD0822FC
:107D50000021204602B0BDE81040FFF7CBBE01A9CC
:107D6000FFF799FE0028F0D0019A00212046FFF786
:107D7000C1FEEAE70422EBE70020E6E773B50D4613
:107D800001A90446FFF787FE064618B900263046CB
:107D900002B070BD94E80F0085E80F0001998A4297
:107DA000F4D3A960A3685B1AA360F0E72DE9F04360
:107DB0005668B37813F0C00489B007468C46154660
:107DC00003D0402C69D000240CE003F00F0260497E
:107DD00003F03003202B51F8228025D006D8E3B1E0
:107DE000102B17D0204609B0BDE8F083302BF9D115
:107DF0006B6931881980072A09D12146328928699F
:107E000004F022FE6B682969D868FFF724FE2A690E
:107E1000696840E06B6901221A702A69314643465D
:107E200009B0BDE8F0431847BCF1020FD5F8149033
:107E300024D1042A22D804A9FFF7A0FF0446002871
:107E4000C1D0069B2BB16968B9F800304A899A42C3
:107E500005D8059B7B60069B002BC3D0B3E7088940
:107E60002A6903FB002204A8C04728B1B9F80030F2
:107E70000133A9F80030E4E70446EAE7B9F8003036
:107E800072899A429FD931892A69581C03FB0122C1
:107E9000A9F8000031463846C1E7D2F810804646BE
:107EA00056F8043B23B909B0BDE8F043FFF73ABFE9
:107EB000022914D104A9FFF761FF002883D0D8F864
:107EC00000306968324604A89847044600283FF409
:107ED0007AAF069B002BF2D1059B7B6082E70129DC
:107EE00026D005292CD000297FF46DAF0C460DF16A
:107EF000040901340B2C3FF466AF01224946384691
:107F0000FFF7F8FD00283FF45EAF19F9013B002BA5
:107F1000EFDB104B049301ABCDE90534002307934D
:107F20006968D8F80030324604A89847044659E7F3
:107F3000082201A9FFF7DEFD08240028E9D142E765
:107F400004220DEB0201FFF7D5FD0424F5E700BF85
:107F50009CCA07008D7907002DE9F04F91B00446C7
:107F6000002604A8CDE90266FFF7A8FCA3683BBB86
:107F7000DDE9053404A89D78FFF7B1FC0028F7D1AE
:107F800015F0300F03D1059B1B8803B10134002C81
:107F900000F0A980630902A90022934240F09C806E
:107FA00010AA02EB830304F01F0453F8383CC4F119
:107FB00020044FF0FF30E040C31A584258410DE012
:107FC0000DF1030301AA0DF102012046FFF78DFE1A
:107FD00038B99DF80330002BCAD1002011B0BDE89C
:107FE000F08F019904A8FFF7BAFC002850D1019B3B
:107FF000B3427DD3059D059A937803F00F03082BB8
:108000007FD004A8FFF76BFC059B9D42F3D14FF096
:10801000FF36019FB7426BD3089B9DF802A0D4F8AE
:1080200008801D684FF00109A368002D5DD09845B8
:108030009CD12B68D3F800B0BBF1000F08D0534699
:108040003A4629462046D8470028C6D0AD68EBE717
:10805000D3F808B0BBF800309F42F7D16A685946A0
:108060000AA8FFF72BFC6B680E9305F10C030F9326
:108070009BF8023003F0C003802B04BF2B1D0E932E
:108080000AAA85F80C9051462046FFF78FFEDBE7E1
:10809000059B9B7813F0300F0FD1069A3F2A0CD81E
:1080A000510910AB03EB810102F01F020123934041
:1080B00051F8382C134341F8383CE5682DB19DF850
:1080C0000220019904AB2046A8479DF8021004AA9B
:1080D0002046FFF76BFE10E051F8045B01357FF49A
:1080E0007DAF013259E7012078E798457FF43EAF34
:1080F0009DF802102046FFF715FE00287FF436AFEA
:108100006BE7168885E737B50C46054611462046CD
:108110000192FFF7A0FC019A2146284603B0BDE872
:108120003040FFF719BF70B586B0CE6801920C469B
:1081300002A90546FFF722FE68B1E06858B1A378AE
:10814000019A03F03003202B314602A805D1FFF736
:10815000DAFF039B6B6006B070BDFFF7FDFEF8E72A
:1081600013B50C466946FFF73BFD60B1DDE900132E
:108170004A0842EAC372C9074FEA530344BFD243D5
:10818000DB43C4E9002302B010BD37B50D46694694
:108190001446FFF7E5FF70B12B89082B0DD1DDE9FF
:1081A0000032C4E90032DDE90001914208BF984283
:1081B0000CBF0120002003B030BD042B03D1009B75
:1081C0002360DA17EFE7022B03D1BDF900302380DB
:1081D000F7E7012B03D19DF900302370F1E7002070
:1081E000E9E713B504220C460DEB0201FFF782FC10
:1081F00008B1019B236002B010BD1146FFF7F1BF2B
:1082000013B508220C466946FFF774FC18B1DDE986
:108210000023C4E9002302B010BD1146FFF7F0BFF0
:108220000B6801601146184710B40468E468A4465E
:108230005DF8044B604710B404682469A4465DF8F7
:10824000044B604770B550B90E4D0F4C0026641BAF
:108250001423B4FBF3F4B44208D1002010E0036807
:10826000002BF1D0BDE87040DB6918472B6813B9CB
:1082700001361435EFE7DB69284698470028F7D028
:1082800070BD00BF0C5A0020205A0020014B4360F3
:1082900000207047C0CA070008467047002070479A
:1082A000024B1868003818BF01207047405A002060
:1082B00008B5024804F080F9002008BD405A0020AB
:1082C00008B510461A4604F0B1FB002008BD0000B6
:1082D0002DE9F041804686B011480F4616461D46EE
:1082E00004F067F90446C8B9AA083146384603F0D5
:1082F000B3FD0B4804F060F9D8F8083053B10122FF
:108300008DF800200C9A0592CDE90147CDE903656F
:1083100068469847204606B0BDE8F0811124F9E789
:10832000405A00202DE9F043814687B014480E469C
:108330001546984604F03DF90446F0B90746BD429B
:1083400015D10F4804F038F9D9F808305BB1022292
:108350008DF800200022CDE90126CDE90325CDF8D6
:10836000148068469847204607B0BDE8F08306EBC6
:10837000073003F043FD0137E1E71124F3E700BFC5
:10838000405A002029DF704728DF704770B5036826
:108390009E6886B004460D466EB1142200216846E0
:1083A00004F052FBA3680593237901952BB1012BAF
:1083B0000DD06846B04706B070BD01238DF800307F
:1083C00023690293E368039363690493F1E702234B
:1083D0008DF80030E3681B030293F5E70846704709
:1083E00000207047024B187A003818BF01207047F0
:1083F000305C0020034B187A0122B0FA80F05A74E6
:1084000040097047305C002008B510461A4604F059
:108410000DFB002008BD000008B51422002104480F
:1084200004F012FB034804F015F8002008BD00BF5B
:10843000305C0020205C002010B5094C094B4360E3
:10844000204604F0B6F848B9FFF75CF906492074F5
:108450001C2306484FF4EE7203F0E9FF002010BD24
:10846000305C0020ECCA0700445A0020205C002049
:1084700038B5224D224C2B7A3BB92249224804F0D0
:1084800045F8206008B9686038BD022324682B7263
:10849000237973B1012B22D020460321FFF776FF09
:1084A00000232B726B6017491748BDE8384004F071
:1084B00058B8D4E90523D21A142AD4E9031028BFE6
:1084C00014229208012A38BF012219441844FFF7E8
:1084D00059FF50B11128DFD101232B72D4E7D4E921
:1084E00003031844FFF750FFF3E72B7C002BCBD19D
:1084F000BDE83840022000F009B800BF305C002021
:10850000485C0020445C0020205C002038B5224CF0
:10851000237A002B3FD0022B09D103282ED01F4BEA
:1085200000221B68E2601A793AB1012A20D0637CEC
:108530006BBBBDE83840FFF79BBFD3E905128D1A2E
:10854000142D94BF521914329A619142EFD102282E
:108550004FF0000308BF19462372104B18BF0D21BE
:108560001868FFF713FF0E490E4803F0FAFFDEE725
:108570001A6901321A615B699A42E7E7E3680133DD
:10858000082B01D8E360D2E70023E360DFE7BDE812
:108590003840FFF7A7B838BD305C0020485C0020A9
:1085A000445C0020205C0020831E012B01D8FFF7D3
:1085B000ADBF704700F0FD03012B08D1044B002232
:1085C0005A74421E504250411874FFF751BF704711
:1085D000305C002010B5064C201D03F0EAFF28B9DE
:1085E000637C1BB9BDE81040FFF742BF10BD00BF60
:1085F000305C00202DE9F34180460D46104801A96A
:1086000016461F4603F048FF0446B0B11822002169
:10861000043004F019FA2D0B0123237101A9084835
:10862000C4F80080A760E560666103F05FFFFFF7B4
:10863000D1FF002002B0BDE8F0810420FAE700BFBE
:10864000205C00202DE9F34180460F460F4801A928
:1086500016461D4603F020FF0446A8B1182200214B
:10866000043004F0F1F9089BA36001A9C4E9036791
:108670000648C4F80080656103F038FFFFF7AAFFE1
:10868000002002B0BDE8F0810420FAE7205C002061
:1086900013681F2B10B5144607D90022083003F0C9
:1086A00026FD08B92023236010BD48F21450FBE7D3
:1086B000083003F0F9BC083003F0C6BC43689B687F
:1086C000184708B5436808305A7900F02CF90020A3
:1086D00008BD2DE9F0410C469CB008461F460392A8
:1086E000FFF7ECFFD4F80480039998F80550BD42D9
:1086F00028BF3D4606462A4604A800F009F998F826
:10870000052022990CA800F00EF900960CAB2A4621
:1087100004A904F1080003F00BFA002848F24250C3
:1087200018BF00201CB0BDE8F08128B139B100238A
:10873000C1E900301846704748F21050704748F2BF
:108740001350704730B1036848F240508B4208BF65
:108750000020704748F21050704728B148F211507D
:10876000914208BF0020704748F210507047000047
:1087700070B506460C461D46FFF7D7FF50B9B379D2
:108780004AB1AB420AD111462046FFF79AFF08B919
:10879000044B236070BD48F21050FBE748F21150C3
:1087A000F8E700BF7052464D2DE9F0470C460646EB
:1087B0000F492046DDE9088915461F46FFF7C2FF2D
:1087C000A0B963685A79494652004046FFF7C5FF91
:1087D00060B94DB1CDF820803B462A46214630464F
:1087E000BDE8F047FFF775BF48F21050BDE8F087CD
:1087F0007052464D10B5044638B149B10B6841601E
:10880000984708B9044B236010BD48F20150FBE7BC
:1088100048F21050F8E700BF6E524648F0B41346D5
:1088200048B10768094EB7420AD161B12AB143681D
:10883000F0BC5B68184748F201531846F0BC70471B
:1088400048F20253F9E748F21053F6E76E524648F1
:10885000F0B460B107680C4EB7420CD171B14368F7
:108860001568DC68A5420CD3F0BC9B68184748F239
:108870000150F0BC704748F20250FAE748F213503A
:10888000F7E748F21450F4E76E524648F7B504464D
:10889000DDE9086715460193FFF7ACFF68B9019A57
:1088A00029462046FFF7BAFF38B93A4631462046F6
:1088B00003B0BDE8F040FFF7CBBF03B0F0BD000050
:1088C000F8B50A4F0A4C0B4EE41B0123E408337041
:1088D0000025A54203D1022333700020F8BD57F8CC
:1088E000353098470028F9D10135F2E730CF07003D
:1088F00030CF07004C5C002001390144814200D296
:10890000704703780A7800F8012B01F80139F5E780
:10891000013A02440139824200D2704711F8013F06
:1089200002F80139F7E770B516460D46FFF7F0FF7C
:108930003246A9193044BDE87040FFF7E9BF38B5A9
:108940000D460446FFF7D8FF29466019BDE83840B8
:10895000FFF7D2BF30B53AB11368DB430A4D01448B
:10896000814204D1D84330BD4FF0FF33F6E710F811
:10897000012B5340082213F0010418BF2C46013A82
:1089800084EA5303F7D1EBE72083B8ED831F012B73
:1089900010B5044602D8002000F0F2FB034B1B6820
:1089A0001BB12046BDE81040184710BD505C0020A8
:1089B00008B5074B18600020FFF7E8FF054800F0F6
:1089C000C7FB20B9BDE80840024800F0F3B908BD74
:1089D000505C00208D89070043690BB1C0681847BF
:1089E0007047000010B40549054C0022904218BFA2
:1089F000214604485DF8044BFFF712BCCCCA0700BF
:108A0000F8CA07000C5A002007B5009313460A461F
:108A100001460348FFF708FC03B05DF804FB00BF04
:108A20000C5A002013460A4601460148FFF703BCD2
:108A30000C5A0020014B18700B207047545C00202A
:108A4000024B002218781A70704700BF545C002057
:108A500018DF704730B585B0054610220C466846D1
:108A6000002103F0F1FFA408684601950294FFF786
:108A7000EFFF05B030BD1FB50023CDE901330393EF
:108A8000684602230093FFF7E3FF05B05DF804FB9F
:108A90004FF000534FF480521A60002070470000DE
:108AA000014B06201B681847605C00200A2803D988
:108AB0000B38C0B2FFF7BEBF7047000010B50446C8
:108AC00086B00020FFF7BEFB014638B1174A1821D7
:108AD000204606B0BDE8104003F0ACBB1822684643
:108AE00003F0B2FF0423124A8DF80030114B116DD0
:108AF0001B68994212D1104B186800F0ABFF8DF83B
:108B00000100FFF7D3FFD4E901138DF80100684697
:108B100098470A4800F058FA06B010BD01238DF8B6
:108B200001306846D4E901139847F5E7BD8A07008C
:108B300064630020585C00205C5C0020A18A070070
:108B4000F0B5044687B018220021684603F07CFF88
:108B500022788DF8002001238DF80130531E0B2B55
:108B600000F21281DFE813F01D0010001D001D004F
:108B700010011D0010011D001001100110010C005A
:108B8000824B07201B689847D4E901136846984731
:108B90009DF80130012B00F0EC807C4B05201B6818
:108BA000E6E0062A7A4901D0012A01D122690A7039
:108BB0000A78012A04D0022A53D000230B7093E0D4
:108BC000072BE1D801A252F823F000BFED8B07007C
:108BD000898B0700578C07002B8C0700898B0700B7
:108BE000518C0700898B0700058C0700674B032019
:108BF0001B689847606900F00DFDFFF757FF8DF87F
:108C00000100C1E7A18A206900F01CFDFFF74EFFBB
:108C1000604B8DF80100DA6B1B6C0293E3680192E4
:108C2000002BB1D020699847AEE75B495B4800F064
:108C300057FDFFF73BFF01288DF80100A4D100206C
:108C400000F0C2F900289FD00A238DF801309BE77D
:108C50004FF4007303934F4BDA6B1B6C019202933A
:108C600092E7072B90D801A252F823F08D8C0700D1
:108C7000898B0700438D07004D8D0700898B070006
:108C8000778D0700898B0700ED8C070000F0FAFC58
:108C900008B90823D9E762690AB90323D5E7C2F303
:108CA0000B0333B13B4B3C495B6D096813448B426A
:108CB000F3D1B2F5805F01D90423C6E7354B3649BD
:108CC000586D096815188D42E3D85A64DA6C9A64B5
:108CD00018651863314B1B68002201211844FFF707
:108CE000A1FE00283FF450AF0523AEE700F0CAFC18
:108CF0000028CED0274DA18AD5E914329B1A6A6C80
:108D00000B449342C9D8254B2F6B1B68206905F192
:108D100048021F44FFF71EFEE368A28A2169064647
:108D20003846FFF771FE08B1E3687BE7A38A2A6B38
:108D3000AE641A442A632A6D029613442B6501938C
:108D400022E7144B9A6C02921B6DF8E7114BD3E9A2
:108D50001402596C821A8A429BD19A6C5865002180
:108D600020465964DA64FFF7A9FE084B1B6804200B
:108D7000984707B0F0BD074B9A6C1B6D01934FF4F9
:108D8000805302920393FFE602235EE7605C0020BB
:108D90007059002064630020585C00205C5C002057
:108DA00083681BB1024A182103F044BA07207047B8
:108DB000418B070038B50546C0B10120FFF712FE10
:108DC000044648B900F018FC00F05CFC30B9084BD0
:108DD00000201D60FFF72EFE204638BD05490648DD
:108DE00000F07EFC0128F2D00324F5E70724F3E726
:108DF000605C0020585C00205C5C00202DE9F041A4
:108E000015464FF46072064688461F4603F0FEFD85
:108E100028B915B90020BDE8F081A847FAE700227B
:108E200001213046FFF7FEFD70B94FF460724146F4
:108E3000384603F0FBFD2B464FF46072394630464E
:108E4000FFF7E2FD0028E5D00320E4E72DE9F0413B
:108E50003F4C2368013341D000225821201DFFF7E9
:108E600079FD27683A1A57425741DFF8F880394EA2
:108E7000D8F800502B68013365D000225821281DF6
:108E8000FFF768FD2B6883422AD16C68012C0AD059
:108E90000022C32105F51870FFF75CFDD5F85C4290
:108EA000231A5C425C41EFB129492A484FF46072B1
:108EB00003F0BCFD6CB1D8F8004027485422211DB6
:108EC00003F0B4FD25484FF4327204F15C0103F065
:108ED000ADFD7368012B12D0BDE8F0810027C4E717
:108EE0000024E0E72CB1D8F800101A484FF4607263
:108EF000EDE718484FF46072002103F0A5FD184C0F
:108F0000A4F5E4750FCD0FC40FCD0FC40FCD0FC462
:108F100095E80F0084E80F0004F11005A4F5DC7457
:108F20000FCC0FC594E8070085E807000022012355
:108F300086F8602286F8E222F26986F8A132C6F845
:108F4000A2227360C8E7002FD3D00024ACE700BF93
:108F500000F007006463002068630020C063002005
:108F6000886600207459002070B50C4C054600221C
:108F70005821201DFFF7EEFC00222060C32104F5DC
:108F80001870FFF7E7FC2A46C4F85C022146044B40
:108F90000448BDE87040FFF731BF00BF64630020A4
:108FA000E45F002000F0070002460248024B006820
:108FB000FFF724BF74590020645C00200149FFF7CB
:108FC000F3BF00BF00F0070038B505460020FFF7EB
:108FD000CBFF044618B903492846FFF7E5FF2046B2
:108FE00038BD00BF6463002010B5FFF7FBFC0446EA
:108FF00028B9FFF72BFF2046FFF7E6FF00B103205B
:1090000010BD000010B5084C4FF40072FF2104F1B0
:109010005C0003F019FD2022002104F1380003F068
:1090200013FD0023236310BD6463002029DF704714
:1090300038B50C4D0446D5F8643378B101330FD1FF
:10904000002218210430FFF785FC2146206007220A
:1090500005F55970BDE83840FFF7E8BF0E2038BD70
:109060000820FCE700F0070050B1064B03F11C029A
:1090700053F8041B40F8041B9342F9D100207047B9
:109080000E20704764F3070010B5064C002218212B
:109090002046FFF75FFC54F8043C1B1A5842584125
:1090A00010BD00BF68F3070010B50A4CD4F8243394
:1090B000D4F864231340013309D04FF4FE2002F0AA
:1090C0009DFEC92221464FF4FE2002F0C5FE00207D
:1090D00010BD00BF6463002038B1054B0360054B31
:1090E000436001230372002070470E20704700BFC9
:1090F0001F910700F990070069B10B78022B0CD182
:10910000022804D0032814BF08201120704703232D
:109110000B70002070470E2070470820704710B574
:109120000C4681B10B78012B06D00ED9033B012BE5
:1091300094BF0820112010BDFFF77AFF0028FAD154
:1091400002232370F7E70E20F5E70820F3E700007D
:10915000F8B5094F094CE41B0646E4080025A54272
:1091600001D10020F8BD57F8353030469847002827
:10917000F8D10135F3E700BF30CF070038CF070043
:10918000F8B5094E094CA41B0746E408002504362F
:10919000A54201D10020F8BD56F835303846984731
:1091A0000028F8D10135F3E730CF070038CF0700AA
:1091B000034A00230360436083601363704700BF6A
:1091C000646300204FF44053074A5968914201BF3D
:1091D000986800F6FF7020F47F6020F00F0018BF41
:1091E0004FF48050704700BFDBE5B15108B5FFF781
:1091F000E9FF054B9B69184400F6FF7020F47F607F
:1092000020F00F0008BD00BF646300204FF48050C1
:10921000704700002DE9F74F1F46244BDFF894B04C
:109220001B6ADFF8949001910446154600934FF0B5
:1092300000084FF4405AB8F1010F5FFA88F61AD0CF
:10924000022E24D0FFF7D2FF9DB1009B013B594273
:109250005941A9EB0000A04201D3019BEBB1D1B968
:1092600008F10108B8F1030FE5D1A04216D204209D
:1092700018E02946EDE7FFF7A5FF37B9DAF8041043
:10928000B1EB0B0118BF0121E3E74146E1E7012102
:109290004FF48050DDE7A042E9D316B10448FFF750
:1092A00087FF002003B0BDE8F08F00BF646300209B
:1092B0007C630020DBE5B1510040070090F85520A9
:1092C00012F0FB0F07D190F8643023B1836ECBB15D
:1092D0000B600120704712F0010303D090F8563064
:1092E00003B1836D9207F2D590F85C20002AEED08E
:1092F000054A006EC2F5FC22904201D80344E6E71D
:10930000042070470F207047007007002DE9FF47C9
:109310002F49304D8A6B304C304FDFF8D490DFF856
:10932000D4A06E465C313046FEF750FC96E80F0044
:1093300085E80F0000212A4B39704FF44772204610
:10934000C9F80010CAF80010EB6003F07DFB254956
:1093500022462846FEF7D7FE20B90027384604B03B
:10936000BDE8F0873F78002FF7D094F86C3194F87F
:1093700000801BB3B8F1000FEFD194F87231002BCD
:10938000EBD0DAF80020D9F800103046FEF71EFCCA
:1093900096E80F0085E80F004FF4B272414604F5DD
:1093A000BA7003F051FB104904F5BA722846FEF773
:1093B000AAFE0028D1D004F5BA7406E0B8F1000F77
:1093C000CBD0A379002BC8D00834084B1C60C5E76C
:1093D00064630020306A00201467002010670020BA
:1093E000F993070080CC0700CCCB0700EC6A002083
:1093F0000C670020086700205B68DA680D4B9A4212
:1094000030B508D10C4C236813B90C490B681BB15B
:109410000B4B00221A7030BDD0E901321A4413F907
:10942000015B002DA2EB0300F9DB23600860044B15
:109430000122EFE7CCCB07000C6700200867002073
:10944000106700204FF4405310B55968154CA142E5
:10945000024624D000F500535B68181B4342434189
:10946000A14218461AD102F500535A688A4215D112
:109470004FF440521178142982BF50690A4AB0FB58
:10948000F2F01A7898BF0020142A83BF5B69064A5D
:10949000B3FBF2F30023C01A18BF012010BD002354
:1094A000DEE700BFDBE5B15140420F0000B591B0EF
:1094B000FFF706FA684608492022FFF734FA6A46A1
:1094C000064907484023FFF753F9064B01221A705B
:1094D00011B05DF804FB00BF28CD0700406A0020F2
:1094E00030CB0700E4660020F0B5A3B007460C4679
:1094F00015461E4678222023002104A8029303F07B
:10950000A3FA002303931C4B1B780BB9FFF7CEFF84
:109510005CB367BB02AB0193184B00931849289BBF
:10952000324604A8FFF7B2F918BB402D21D1154BE4
:10953000214604F140021C4651F8040B43F8040B89
:109540009142F9D10F482021FFF7F9F94023CDE9E5
:1095500000430A4A029B0C4903A8FFF725F900289B
:109560000CBF0120052023B0F0BD1320FBE716201F
:10957000F9E70A20F7E700BFE4660020886A0020C8
:1095800018CB0700A86A0020406A0020F0B5ABB0F5
:1095900004460D4616461F467822202300210CA8BB
:1095A000039303F051FA114B1B780BB9FFF77EFFC1
:1095B0002FB12146202204A8FFF7AAF904AC03AB7F
:1095C0000B4F01930B49009733462A460CA8FFF72F
:1095D0005DF948B920222146384603F017FAB0FA5F
:1095E00080F040092BB0F0BD0020FBE7E4660020CE
:1095F000E566002018CB070008B5044B986B08B14E
:10960000FFF784FE024B187008BD00BF64630020A2
:10961000E86A002010B5044658B1B0F5007F0AD8BA
:10962000064B00221A70FFF7EDFC054B01209C63EE
:1096300010BD0320FCE70420FAE700BFE86A002021
:109640006463002070B50E4C0646E06BA36B4218B5
:109650009A420D4611D85C300A462044314603F048
:10966000E5F9E36B04F140022B4429463046E363FD
:10967000FFF770F92064012070BD0320FCE700BFF4
:1096800064630020014B1878704700BFE86A00202F
:1096900013B5104C94F86C21B2B194F8D802B4F818
:1096A000DA2204F5377104F5B8740B4B1B6800938C
:1096B0000A4B1B68FFF718FF012809D1201D02B0D3
:1096C000BDE8104000F0CAB9114610460434ECE77A
:1096D00002B010BD14670020086700200C6700204E
:1096E000204BD3E90E329A422DE9F04106460D4651
:1096F00033D1DFF8788098F800704FB1FFF776FD2E
:10970000194B306029461868BDE8F041FFF7D6BD17
:10971000FFF7FCFD18B3FFF7BBFF012837600446D5
:109720002F6017D1104B29461868FFF7C7FD012895
:1097300004460FD103463A4628683946FFF76AFDCA
:1097400038B9FFF753FD88F8004030602046BDE887
:10975000F0810424FFF756FCF8E70824F6E7052417
:10976000F4E700BF64630020EC6A0020E86A002090
:1097700001237230FFF70ABF13B504460846237869
:109780001146032B03D8DFE803F008050A13002075
:1097900002B010BD0022FFF7DDF80120F8E70A460D
:1097A00000230146601C02B0BDE81040FFF7EEBE8A
:1097B000034600914022611C0020FFF795FE431EE6
:1097C00058425841E4E700002DE9F043A3B00546B4
:1097D0000E461446002178221F4604A820239DF837
:1097E000AC800393DDF8A89003F02EF9412200210C
:1097F000284603F029F9B6F89430A34282BF4423E7
:1098000003FB046393F8968085F80080B8F1030F9A
:109810001ED8DFE808F00902111F00224946384629
:10982000FFF798F8C5F801004A4639462846FFF781
:10983000A3FF23B0BDE8F08303AB01936B1C00933F
:109840000A494B463A4604A8FFF720F80028EBD017
:109850000020EEE744214C4333199A34B3F89820A2
:109860003119681C03F0E2F8DEE700BF18CB0700EF
:109870002DE9F047714B1C68A4B005460F46904691
:109880000A4601462046FFF773FF002800F0CB8010
:1098900094F855606EBB4FF00109CDE900792B4675
:1098A0003246214613A8FFF78FFF00287ED0B8F17B
:1098B000000F6AD0DFF88881412213A908F2A120A5
:1098C00003F0B4F894F89230C8F82C90C8F82060EF
:1098D00013B194F8933013B96368C8F808300022C4
:1098E00039462846FFF736F8554B0124C3E909707D
:1098F00094E04122002102A803F0A6F806F0010935
:109900004122002113A806F0020603F09DF8B9F1E8
:10991000000F3ED005F500524A4B5068984245D1A1
:10992000D4F858A00AF5FF530AF6FF71C1F30B01F2
:109930001F335B1A9168994238D34FF440535968EA
:1099400081420CD11978102988BF1969137898BF02
:109950000021102B8CBF13690023994226D1284681
:10996000FFF770FD00B10EB30123CDE900A3002283
:109970002B46214602A8FFF727FFB8B1A26DAB180E
:10998000BA1A4EB9B8F1000F12D12D4B01245C6107
:109990004FE03A462B46F4E70021CDE9002113A819
:1099A0004A462146FFF710FF0028EBD105243BE093
:1099B000DFF88C80B9F1000F29D02846FFF742FD6F
:1099C00018B108F11800FFF7F3FB1F48412202A964
:1099D00003F02CF8002E14BFAC23A523C8F82C30BC
:1099E000A36DC8F83430002E3FF479AF17484122F8
:1099F00013A903F01BF894F8923023B194F8933034
:109A0000002B7FF46CAF6368C8F80C3067E7AA23BB
:109A1000C8F82C30E7E70E48FFF7CAFBFFF7F2FA69
:109A2000074B9D6405E01724B8F1000FF3D1FFF751
:109A3000E9FA204624B0BDE8F08700BFEC6A0020B8
:109A400064630020DBE5B151C46500204666002058
:109A5000886300200122FFF70BBF000090F854201C
:109A6000F0B50346002A56D090F85500032852D886
:109A700093F86E20032A4AD193F892201AB193F8F2
:109A80009320002A45D11A7A002A44D0DA68342A71
:109A900043D14FF4405522496C681A8A8C421FD139
:109AA00042B15969A9B1D2B203F114040021CEB276
:109AB000B24201D8122023E054F8047BAE89B742A9
:109AC00001F10101F3D11A788AB9012818BF0F20DA
:109AD00016E010B9012AEDD1F5E70128F3D1E9E745
:109AE00012B15A69002AE5D11A78002AE2D0012879
:109AF0005B680C4A05D8906898428CBF1020012002
:109B0000F0BDD068984234BF01201020F8E714203F
:109B1000F6E70120F4E70F20F2E71120F0E700BF9D
:109B2000DBE5B151646300206CDF70476DDF704787
:109B300072DF704773DF704774DF704775DF7047FF
:109B400076DF70477ADF70477CDF70477DDF7047D4
:109B50007FDF704786DF70478FDF704790DF704789
:109B6000A8DF7047AADF7047ADDF7047AEDF7047F0
:109B7000B0DF7047B1DF7047B5DF704762DF704715
:109B800066DF704713DF70470146014802F035BCBD
:109B900044CF070070B518228CB000210DEB0200F5
:109BA00002F052FF2823089316231E4CADF806300E
:109BB0000023CDE90333059302230622237023718A
:109BC000592301250926A27063710322FE236570C3
:109BD000E270A3710DF10601A0198DF818508DF8EF
:109BE0002D500294ADF80C60FFF7B0FFB8B9BDF886
:109BF000063026725A19E271BDF80C200A4C134443
:109C000002A906AA2046ADF80C30FFF791FF30B943
:109C10002078FFF791FF20782946FFF78BFF0CB0E3
:109C200070BD00BF6E7B002078590020154938B503
:109C30000B68024613F0010022D0134882421ED066
:109C4000124A10884FF6FF72904213D043F004037B
:109C50000B601321FFF774FF90B90D4DC82445F038
:109C600001054FF47A40A847013CFAD1BDE83840DD
:109C7000FDF708BD074B1878FFF75EFFF6E70020F9
:109C800038BD00BF907B002030CF07007A590020FC
:109C900010CD070078590020F0B50388232B8BB036
:109CA000044635D80F2B04D8012B00F0F9800BB0F7
:109CB000F0BD103B132BFAD801A252F823F000BFDD
:109CC000419D07005F9D0700AF9C0700419E070074
:109CD000859F0700AF9C0700AF9C0700AF9C070063
:109CE000AF9C0700AF9C0700939F0700AF9C070045
:109CF000AF9C0700AF9C0700AF9C07006B9E07005E
:109D0000AF9C0700799E0700AF9C0700279E0700C5
:109D1000503B9AB2062ACAD8062BC8D801A252F8DC
:109D200023F000BF8B9D0700AD9E0700939F0700A7
:109D3000AF9C0700AF9C0700E39D07008D9E0700C6
:109D4000974D83882B80974B1B680BB10120984758
:109D5000954928880BB0BDE8F040FFF7EFBE904B67
:109D60004FF6FF721A80914B1B685A0704D4FFF715
:109D700011FF08B100F0D7FE8A4B1B68002B96D06C
:109D800002200BB0BDE8F0401847894EE288B38846
:109D90009A428CD1874802F00CFB0546002886D0F9
:109DA000228A04F1120102F041FE1822002104A8C7
:109DB00002F04AFE08238DF810307F4B06937F4B4C
:109DC0000596CDE9073504A8238AADF82430FEF7BF
:109DD000E7FF00283FF46BAF7648294602F00DFB01
:109DE00065E7E188F6291CD8CB1E9B070DD0CB1F59
:109DF0009BB2013B5A4202F0030203F0030301F15C
:109E0000FF3158BF5342C91A89B2654B1888FFF712
:109E1000B3FE00283FF44BAF0BB0BDE8F04000F0BC
:109E200082BEF721F1E70022808804A9CDE904224F
:109E3000FFF794FE00283FF43AAF00F074FE36E7D7
:109E4000574C02230493208802AB04AA42F6052152
:109E50000593FFF789FE08B100F065FE0023208816
:109E60001A468521FFF774FEE4E74D4B00F1080127
:109E70001888FFF763FECCE7002304A980888DF8DB
:109E800010308DF81130FFF767FED3E7A379002B70
:109E90007FF40DAF424B13211888FFF751FEB8E74E
:109EA0003F4B00211888FFF76BFEB2E7A379002B28
:109EB0003FF4FDAE022B7FF4FAAE3D4D2189AA8915
:109EC00091427FF4F4AEA27B012A7FF4F0AE4FF40E
:109ED00080320592228A324EADF81820628AADF89F
:109EE0001A2004F11402079201AF298A30880493E2
:109EF00002AA02930397FFF737FE60B9384602F0D3
:109F00005EFB40B940F2FD133088ADF8143004A96F
:109F1000FFF72EFECBE6002304A93088ADF81430FD
:109F2000FFF726FE014600287FF4C1AE182204A8E0
:109F300002F08AFD237D204A8DF81030022B059512
:109F4000069218D0062B10D0012B10D11C4B1A886A
:109F50001C4B1A80637DD4F816200893012B0992BC
:109F600005D11948FFF70CF901E0637D089304A8B7
:109F7000FEF716FF9BE6124AB4F815301380114A1B
:109F80001380F4E700231A4619468088FFF7E2FDA4
:109F90003FE70023A0881A461946FFF7EBFD38E794
:109FA0007A590020947B002016CD0700907B00207A
:109FB0005A7B002044CF07000DA00700899B0700B3
:109FC000987B00209A7B002030CF07007FB50023CC
:109FD000CDF80B308DF80F300A4BADF806109B8989
:109FE000ADF8083001238DF80A300DF10603CDE9F4
:109FF0000430054B02A91888FFF7B8FD07B05DF8DB
:10A0000004FB00BF5A7B00207A59002010B504469B
:10A0100086B000210D2202A8019102F015FD2378DF
:10A02000082B0BD1364A374913880988013B9BB26C
:10A030001380D9B1D3B903231180237062782378B8
:10A040008DF805306021012A8DF804108DF8062066
:10A050000ED00B2A12D1FEF7F3FC8DF8070000207A
:10A06000FEF7E8FC042101A8FFF7B0FF06B010BD21
:10A07000062B05D0082B29D0032B27D00321F2E78C
:10A08000E1688DF80710D4E90123080A8DF808006B
:10A09000080C090E8DF80A10110A8DF80B208DF8A6
:10A0A0000C10110C120E8DF80E201A0A8DF80F30BC
:10A0B0008DF810201A0C1B0E8DF80D108DF809006C
:10A0C0008DF811208DF812300F21CCE7D4E901234F
:10A0D000110A8DF807208DF80810110C120E8DF85A
:10A0E0000A201A0A8DF80B308DF80C201A0C1B0E62
:10A0F0008DF809108DF80D208DF80E300B21B2E788
:10A100009A7B0020987B00202DE9F0413E4B94B0D3
:10A1100005464FF6FF721A8001204FF659632A4612
:10A1200002A98DF80A00ADF80830FFF719FD0446C2
:10A13000002865D1354B04AA03F1100716461868AC
:10A140005968144603C40833BB422246F7D1A91C00
:10A150003046FFF713FD0446002851D101461C226A
:10A160000DA802F071FC9DF834308DF8044043F0E6
:10A1700004038DF834300223ADF80C30AB788DF841
:10A180000E3003238DF80630F423CDE90A44ADF8F0
:10A190002C302B464FF0110833F8040B0C9403AF0E
:10A1A00001AE08AA0DA98DF8058008970996FFF75A
:10A1B000D9FC044620BB01461C220DA802F044FC39
:10A1C00018238DF834300123ADF80C30AB788DF8BE
:10A1D0000E3013238DF806301723CDE90A44ADF86D
:10A1E0002C302B4608AA33F80C0B8DF804400DA92F
:10A1F0000C94CDE908768DF80580FFF7B3FC044692
:10A20000204614B0BDE8F0817A590020F8CC070050
:10A2100030B5314C236813F0010585B05AD12F4B6E
:10A2200018602F4802F0AEF80295FEF724FC0028D3
:10A230004ED12C48FFF7A6FC002849D1FDF7E4F9E0
:10A24000002845D102A8FDF7B1FA002840D102A9A3
:10A250000120FDF7B5FA00283AD102A8FDF702FB6C
:10A26000002835D1FEF710FF30B11F48FEF7FCFE85
:10A27000236843F002032360112302A88DF8043001
:10A28000FFF754FC20BB9DF8093002A801338DF87C
:10A290000930FFF749FCD8B92568AB074BBF124915
:10A2A00012498A69072248BF043192B201A8FFF718
:10A2B0004BFC68B90E48FFF745FC48B90D48FFF75D
:10A2C00023FF28B9FFF766FC10B945F001052560AA
:10A2D00005B030BD0020FBE7907B0020947B002080
:10A2E00044CF070000700700F06A0020F0CC0700A0
:10A2F00016CD07005A7B002041DF7047014B012239
:10A300001A707047BC7F0020BFF34F8F0549064B82
:10A31000CA6802F4E0621343CB60BFF34F8F00BF03
:10A32000FDE700BF00ED00E00400FA05024B034822
:10A3300000221A70FEF742BEBC7F002009A307006E
:10A34000042810B5044609D8022811D816D00D4BA0
:10A350001B68B3B12046BDE810401847831F012B8E
:10A36000F5D8094B094800221A70FEF727FEEEE7E0
:10A3700007494FF4202000F007FAE8E7FEF766FDF2
:10A38000E5E710BDC07F0020BC7F002009A30700C7
:10A390002DA307000020704738B55E4B18600020E1
:10A3A000FEF722FE0446002840F0AE8000F0C2FA1C
:10A3B000012800F0A480022800F0A880002840F0C6
:10A3C000A3804FF08043D3F8004414F480344BD082
:10A3D0004FF48032C3F8002404464F4D2B6A012B02
:10A3E00050D04FF4202400F03FFB4C4A202118208D
:10A3F00001F0FCFE08B100F096FB4FF08043D3F86B
:10A400000024D20742BFD3F8002442F00102C3F86F
:10A410000024D3F81C2502F0F902B12A02BFD3F8B8
:10A420001C2502F04E02C3F81C253B4B9A6D012AF5
:10A4300006D100209865FEF797FD08B100F073FB88
:10A44000FFF7A8FF00285FD12046354900F09CF9AE
:10A450003448FEF7ADFA002856D100F02BFB01F08E
:10A460004DFFFFF749FFF8E7D3F8202502F0F90286
:10A47000A92A03BFD3F8202502F05602C3F82025ED
:10A480000124AAE74FF440535A68274B9A4209D057
:10A49000FEF798FEAA69014694B12448FFF76CF9CB
:10A4A00090B99EE76A6B1CB995F86032012BEFD02A
:10A4B0001F484FF48051FFF75FF90028E8D190E77B
:10A4C00095F8A132012BE8D14FF08043D3F8002456
:10A4D000D10786D4D3F81C3503F0F903B12B80D013
:10A4E000AB6D012B3FF47DAFFEF7DEFD60B9114B84
:10A4F00018701148FEF762FD00F022F804E00D4BE1
:10A500000E481C70FEF75AFD032038BD4FF4A024FE
:10A5100069E700BFC07F0020646300209C7B0020AF
:10A520002DA3070041A30700DBE5B151056600201C
:10A53000C4650020BC7F0020FDA2070009A307001E
:10A5400008B5074B4FF0FF32C3F88020C3F88021D5
:10A55000FEF79EFABDE808404FF4805000F032B894
:10A5600000E100E080F30888084770B5C1F30B04F0
:10A5700034BBB0F5FE2F23D84B1E1B0B020B03EB95
:10A58000103101264FF08040914201D2204670BD2B
:10A5900002F01F03550906FA03F3032D05D8DFE87F
:10A5A00005F00206090CC0F800360132ECE7C0F8ED
:10A5B0000436FAE7C0F81036F7E7C0F81436F4E7C7
:10A5C0000724E3E710B504461548C0F5FE21FFF760
:10A5D000CCFF08B100F0A7FAFEF7F4FD114B9B6920
:10A5E00003F6FF7323F47F6323F00F031918002091
:10A5F000FFF7BBFF08B100F096FAEFF305830023E5
:10A60000D4E9000183F31488BFF36F8F83F31088BC
:10A6100083F3118883F31388BDE81040FFF7A2BFCE
:10A6200000700700646300201FB518490B7853BB06
:10A630004FF08043A024D3F81824D2035CBF01223A
:10A640009A60134B0022C3F80021D3F80001039055
:10A650000398C3F84021D3F8400102900298C3F850
:10A660004421D3F84401019001980A4880F824431A
:10A67000102444600220C3F8082501229A601A6061
:10A68000C3F804030A7004B010BD00BFC87F0020E7
:10A690000040024000E100E037B56FF07F42154C0A
:10A6A000057BD4F804358A4228BF0A46891A134428
:10A6B0004A1E942A23F07F4305F5A8729BBF963B60
:10A6C00096314160416044F822300B4B4FF4F86002
:10A6D00043F001039847094BAA00134400221A6073
:10A6E0001B680193019B4FF48033AB40C4F80433E3
:10A6F00003B030BD0040024020CD07004041024081
:10A700001C4BD3F804212DE9F34152B11A490A68D0
:10A7100001320A600022C3F80421D3F80431009307
:10A72000009B164C164DDFF84C80164E00272B6808
:10A7300073B12F602B68227B0193019B4FF4803310
:10A740009340C8F80833616851B12046FFF7A4FF71
:10A750000435B54204F11004E9D102B0BDE8F0813E
:10A76000A16811B12046FFF797FF2368002BEFD0B7
:10A770009847EDE700400240C47F00207C5900204C
:10A78000404102404841024070B50B4B1D682A7B96
:10A790004FF480339340094A0E46C2F8083304460A
:10A7A00040B1FFF741FF2E6021462846BDE87040CA
:10A7B000FFF772BF70BD00BF9C59002000400240EF
:10A7C00070B5074B1D6804460E46A860FFF72CFFC6
:10A7D0002E6021462846BDE87040FFF75DBF00BFF0
:10A7E000A0590020014B01221A707047C97F002038
:10A7F0002DE9F74F06468846A8EB06052D0B02F615
:10A80000FF77144600F030F9082D28BF08252B03E8
:10A81000DFF868B001933F0B0CB9234629E0BD4235
:10A820002CBFBA46AA464FF000025146304634BF0C
:10A83000DDF80490A146FEF7F5F80346C8B909F122
:10A84000030222F0030241463046FEF7DDF80346DC
:10A8500078B9DBF830304B44CBF83030FEF7B4FB3E
:10A86000A7EB0A07A4EB09044E44C844034600289A
:10A87000D2D0184603B0BDE8F08F00BF646300205B
:10A8800010B5FEF7C3FC124A916C01F500535C68E9
:10A89000104B9C4218D1D2E90C32934216D0884218
:10A8A00004D1BDE810400020FEF78EBBD21A02F69C
:10A8B000FF7222F47F6222F00F0219441844FFF75E
:10A8C00097FF0028EDD010BD0320FCE70020FAE739
:10A8D00064630020DBE5B15170B5144EF36A756A0C
:10A8E000B46CAC2B1AD1736B1C44ED1AF36AAC2B0D
:10A8F00006D10F482A46A4F5804102F087F898B1A6
:10A900000B482A46214602F081F868B100F0D2F8DF
:10A9100029462046BDE87040FEF79CB8002CE5D1E2
:10A92000FEF764FC0446E1E770BD00BF64630020ED
:10A930000070070070B5264CE36AAA2B37D005D803
:10A94000012B0BD0A52B2ED0002070BDAC2BFBD142
:10A95000FFF796FF48BBFFF7BFFF26E0A66C656ACE
:10A96000FEF730FC864229D1FEF72CFC0022294656
:10A97000FDF7F0FFA36A984202BF0123C4E9070371
:10A98000A56100251348FEF713FC134B1348002262
:10A990001A70FEF719FB68B975B1236A012B14BF51
:10A9A00001200220D1E7FFF76BFF0125EAE7FFF75F
:10A9B00093FFE6E70320C8E70120C6E7236BEA1A06
:10A9C000F1181844FFF714FF0028DAD1CCE700BFD4
:10A9D0006463002088630020C97F0020E5A707008A
:10A9E00010B50024D4F8F83F013304D1084940F6EB
:10A9F000F87001F01BFAD4F8FC3F013307D1BDE831
:10AA000010404FF4FC2140F6FC7001F00FBA10BD6D
:10AA1000007007000A4AD2F800347BB109480023CD
:10AA2000D2F80815D940C90748BF03F5C07103F132
:10AA3000010348BF42F82100072BF1D1704700BF46
:10AA4000000001403546526EFFF7E4BF054B00227F
:10AA500082B0C3F80021D3F800310193019B02B00A
:10AA6000704700BF0000014038B50E4D2B78BBB9D0
:10AA70000D4BD3F800248AB1D3F80445FFF7CAFF81
:10AA800040F61650A042B8BF20460849A0F54860DD
:10AA9000FFF796FE064B4FF480321A6001232B70AD
:10AAA00038BD00BFCA7F00200000014049AA07004E
:10AAB00000E100E0034BD3F800340BB1FFF7AABF6D
:10AAC000704700BF00000140084BD3F8F020D207C8
:10AAD00000D500BEBFF34F8FD968054A01F4E0618D
:10AAE0000A43DA60BFF34F8F00BFFDE700ED00E0DF
:10AAF0000400FA0507280CD8DFE800F004110B1158
:10AB00000B040B044FF0A0434FF08042C3F80C2518
:10AB100070474FF0A0434FF08042C3F808257047BC
:10AB200008B5FFF7D1FF08B5FFF7CEFF07B5002244
:10AB30001046CDE9002201231E2101F044FD4FF013
:10AB4000A0434FF08041C3F80815FFF749FF0022EA
:10AB500010464FF48051FFF708FD024608B1FFF799
:10AB6000B3FF0548C0F5FC21FFF7FFFC0028F6D134
:10AB70000248FFF711FCF2E700700700F5AA070092
:10AB80008B1810448B4200D1704713F8012D00F848
:10AB9000012DF7E710B5013A52B2130601D5002096
:10ABA00010BD50F8224051F822309C4205D802F1E5
:10ABB000FF32F2D24FF0FF30F2E70120F0E7000061
:10ABC000C3F10803DB0070B501330446002003A580
:10ABD0005B1920C940CAAD1920C4184720C940CA12
:10ABE000754120C420C940CA754120C420C940CA4B
:10ABF000754120C420C940CA754120C420C940CA3B
:10AC0000754120C420C940CA754120C420C940CA2A
:10AC1000754120C4404170BD0000000000000000EC
:10AC2000C3F10803DB0070B50133002403A500BFA6
:10AC30005B1920C940CAAD1B20C0184720C940CAB3
:10AC4000B54120C020C940CAB54120C020C940CA72
:10AC5000B54120C020C940CAB54120C020C940CA62
:10AC6000B54120C020C940CAB54120C020C940CA52
:10AC7000B54120C06441B4FA84F0400970BD00BF02
:10AC80002DE9F04F08B4F8CA04B451F8042BA3FB23
:10AC9000028940F8048B4FF0000AE4FB629A4FF0FF
:10ACA000000BE5FB62AB4FF0000CE6FB62BC4FF023
:10ACB000000EE7FB62CE51F8042B4FF00008E3FBD7
:10ACC000628940F8048BE4FB629AE5FB62ABE6FB29
:10ACD00062BCE7FB62CE51F8042B4FF00008E3FBA7
:10ACE000628940F8048BE4FB629AE5FB62ABE6FB09
:10ACF00062BCE7FB62CE51F8042B4FF00008E3FB87
:10AD0000628940F8048BE4FB629AE5FB62ABE6FBE8
:10AD100062BCE7FB62CE51F8042B4FF00008E3FB66
:10AD2000628940F8048BE4FB629AE5FB62ABE6FBC8
:10AD300062BCE7FB62CE40F8049B40F804AB40F8ED
:10AD400004BB40F804CB40F804EB0CBC052B00F02E
:10AD50001E810C68A0F11400A1F11401A2F11402EB
:10AD600052F804EB4FF0000550F8046BE4FB6E560C
:10AD700052F804EB50F8047BE4FB6E6752F804EBE6
:10AD800050F8048BE4FB6E7852F804EB50F8049B07
:10AD9000E4FB6E8952F804EB50F804ABE4FB6E9AC6
:10ADA000A0F1140052F8044B51F804EB4FF0000CE2
:10ADB000E4FB6EC540F804CB51F804EBE4FB6E569F
:10ADC00040F8045B51F804EBE4FB6E6740F8046B59
:10ADD00051F804EBE4FB6E7840F8047B51F804EB87
:10ADE000E4FB6E8940F8048B51F804EBE4FB6E9AA7
:10ADF000A0E80006062B00F0CA800C68A0F118003D
:10AE0000A1F11801A2F1180252F804EB4FF000056D
:10AE100050F8046BE4FB6E5652F804EB50F8047BD8
:10AE2000E4FB6E6752F804EB50F8048BE4FB6E7899
:10AE300052F804EB50F8049BE4FB6E8952F804EBE3
:10AE400050F804ABE4FB6E9A52F804EB50F804BBE4
:10AE5000E4FB6EABA0F1180052F8044B51F804EB80
:10AE60004FF0000CE4FB6EC540F804CB51F804EB46
:10AE7000E4FB6E5640F8045B51F804EBE4FB6E67AC
:10AE800040F8046B51F804EBE4FB6E7840F8047B67
:10AE900051F804EBE4FB6E8940F8048B51F804EBA5
:10AEA000E4FB6E9A40F8049B51F804EBE4FB6EABB4
:10AEB000A0E8000C072B6AD008B40C68A0F11C00B5
:10AEC000A1F11C01A2F11C0252F804EB4FF00005A5
:10AED00050F8046BE4FB6E5652F804EB50F8047B18
:10AEE000E4FB6E6752F804EB50F8048BE4FB6E78D9
:10AEF00052F804EB50F8049BE4FB6E8952F804EB23
:10AF000050F804ABE4FB6E9A52F804EB50F804BB23
:10AF1000E4FB6EAB52F804EB50F804CBE4FB6EBCE0
:10AF2000A0F11C0052F8044B51F804EB4FF0000361
:10AF3000E4FB6E3540F8043B51F804EBE4FB6E563D
:10AF400040F8045B51F804EBE4FB6E6740F8046BD7
:10AF500051F804EBE4FB6E7840F8047B51F804EB05
:10AF6000E4FB6E8940F8048B51F804EBE4FB6E9A25
:10AF700040F8049B51F804EBE4FB6EAB40F804ABE3
:10AF800051F804EBE4FB6EBCA0E8001808BCBDE877
:10AF9000F08F2DE9F04FB1E8005E06B4AAFB09126C
:10AFA0004FF00003EBFB69234FF00004ECFB693426
:10AFB0004FF00005EEFB69454FF00006EBFB6A63BE
:10AFC000ECFB6A344918524176415B41A9FB097890
:10AFD0004FF0000949F1000918EB0108A0E88001D1
:10AFE000AAFB0A78574158EB0608A0E88001EEFB5F
:10AFF0006A454FF0000A4AF1000A4FF00001ECFBED
:10B000006B14EEFB6B454FF00002EEFB6C255FEA24
:10B0100059094941644152416D4149F10009EBFB35
:10B020006B3A1AEB010AA0E80804ACFB0C6A664113
:10B030005AEB020AA0E84004AEFB0E6A6E415AEBDE
:10B04000090AA0E8400406BC052A00F0E680A0F149
:10B050001400A1F11401B1E8E043A5FB0E344FF058
:10B060000005E6FB6E454FF00006E7FB6E564FF01D
:10B070000007E8FB6E674FF00008E9FB6E784FF0C1
:10B080000009DB1864416D4176417F4158EB0808A7
:10B0900059F1000950F804CB13EB0C0350F804CB22
:10B0A00054EB0C0450F804CB55EB0C0550F804CBD2
:10B0B00056EB0C0650F804CB57EB0C0758F1000880
:10B0C00059F10009A0F11400EEFB0E89A0E8F80385
:10B0D000062A00F0A280A0F11800A1F11801B1E841
:10B0E000E047A5FB0E344FF00005E6FB6E454FF040
:10B0F0000006E7FB6E564FF00007E8FB6E674FF067
:10B100000008E9FB6E784FF00009EAFB6E894FF00A
:10B11000000ADB1864416D4176417F4158EB080815
:10B1200059EB09095AF1000A50F804CB13EB0C0350
:10B1300050F804CB54EB0C0450F804CB55EB0C0541
:10B1400050F804CB56EB0C0650F804CB57EB0C0729
:10B1500050F804CB58EB0C0859F100095AF1000AD9
:10B16000A0F11800EEFB0E9AA0E8F807072A54D0C9
:10B17000A0F11C00A1F11C01B1E8E04FA5FB0E34C9
:10B180004FF00005E6FB6E454FF00006E7FB6E56FC
:10B190004FF00007E8FB6E674FF00008E9FB6E78A0
:10B1A0004FF00009EAFB6E894FF0000AEBFB6E9A44
:10B1B0004FF0000BDB1864416D4176417F4158EB45
:10B1C000080859EB09095AEB0A0A5BF1000B50F821
:10B1D00004CB13EB0C0350F804CB54EB0C0450F8E5
:10B1E00004CB55EB0C0550F804CB56EB0C0650F88D
:10B1F00004CB57EB0C0750F804CB58EB0C0850F875
:10B2000004CB59EB0C095AF1000A5BF1000BA0F1D9
:10B210001C00EEFB0EABA0E8F80FBDE8F08F21EAB2
:10B22000E1718A00002101F00FBC2DE9F04798463A
:10B23000B3F9023013F11F0448BF03F13E04DD1DD2
:10B2400048BF03F10E056611EC10944275B228BF99
:10B250001446074689462946FFF7E1FF224649463C
:10B260003846FFF78DFCB8F90230B3EBC40F4FEA54
:10B27000C40220D2D21A07EB86040021C2F12006B4
:10B28000A7420FD308F124082A4639464046FFF763
:10B2900081FC01280FD02B4642463846BDE8F047D6
:10B2A000FFF7BEBC54F8040D20FA02F30B432360F1
:10B2B00000FA06F1E4E7BDE8F08710B500231A466E
:10B2C0005CB2A14203DCB2FA82F0400910BD50F832
:10B2D000234001332243F3E74A11012350F82200AF
:10B2E00001F01F0103FA01F108407047013910B560
:10B2F00049B2041D0A06CBB204D4013954F8212006
:10B30000002AF7D001335BB273B103F18042013AF6
:10B3100050F82220002022B9013B00EB431318B261
:10B3200010BD52080130F6E71846F9E710B50023C2
:10B330005CB2A24200DC10BD51F8234040F823402B
:10B340000133F5E72DE9F042082288B0FFF7EEFF60
:10B35000CB6A03930B6B04934B6B05938B6B069338
:10B36000CB6B07930C4681460027134669466A4615
:10B370006846CDE901770097FFF722FC08230546D0
:10B380006A4649464846FFF71BFC236B0393636BF1
:10B390000493A36B0593E36B0544CDE906376A4636
:10B3A000082369466846FFF70BFC082305446A46F4
:10B3B00049464846FFF704FC236A0093636A0193F9
:10B3C000A36A0293A36B0693E36B079305440823D8
:10B3D0006A4649464846CDE904770397FFF7F0FBF4
:10B3E000636A0093A36AA26B0193E36A02930492D7
:10B3F000636BE26B0393CDE90523236A07932E1851
:10B4000008236A4649464846FFF7DAFBE36A009399
:10B41000236B0193636B0293236A0693A36A0793DA
:10B42000351808236A4649464846CDE9047703970C
:10B43000FFF7F6FB236B0093636B0193A36B0293FF
:10B44000E36B0393636A0693E36A07932E1A082358
:10B450006A4649464846CDE90477FFF7E1FB636B4E
:10B460000093A36B0193E36B0293236A0393636AD4
:10B470000493A36ACDE90537236B0793361A082393
:10B480006A4649464846FFF7CBFBA36B0093E36B44
:10B49000CDE90137636A0393A36A0493E36ACDE9B4
:10B4A0000537636B0793361A08236A4649464846B0
:10B4B000FFF7B6FB361A0E4C0FD436B908224946B0
:10B4C0002046FFF767FB01280FD008232246494694
:10B4D0004846FFF7A5FB361AEFE708232246494600
:10B4E0004846FFF76DFB3618F7D408B0BDE8F08288
:10B4F0006CCD070030B5013A52B20023140603D5D3
:10B50000B3FA83F0400930BD50F8224051F8225080
:10B510006C402343013AF1E700EB810100238842AC
:10B5200000D3704751F8042D43EA52030B60D30750
:10B53000F5E7036870B513F001060546144605D01B
:10B5400013460A460146FFF73BFB064621462846BE
:10B55000FFF7E2FF46B104F18042013A55F822308C
:10B5600043F0004345F8223070BD37B51D469DF9C4
:10B57000183001930446FFF723FB019B38B91A46A4
:10B5800021462846FFF706FB0128019B07D02A46E3
:10B590002146204603B0BDE83040FFF741BB03B071
:10B5A00030BD37B51D469DF9183001930446FFF7AD
:10B5B00037FB019B38B12A462146204603B0BDE83F
:10B5C0003040FFF7FDBA03B030BD2DE9F04FA5B014
:10B5D0001D4614ABCDE90231804629461046174678
:10B5E000FFF784FEC0EB851004B2002C2646B8BFDE
:10B5F00004F11F06634246F3471603F01F0304F0ED
:10B600001F09314658BFC3F1000904A8FFF707FE20
:10B61000B9F1000F36B22BDD04AB002203EB860636
:10B62000C9F1200C13469D4217D86B00019304AB5F
:10B6300003EB85096F1E24AB012603EB8707002C63
:10B6400054DA24AB03EB86062A4656F8881C40469B
:10B65000FFF76CFE25B0BDE8F08F57F8230000FA25
:10B6600009F10A4346F8042B013320FA0CF2DAE719
:10B6700004AB2A46394603EB8600FFF757FED4E7B2
:10B680000FFA82FE5AF8883C53F82EB024AB03EB35
:10B690008202013052F8803C0B44BBEB030334BF01
:10B6A000012200229B4518BF11465CF8882C42F805
:10B6B0002E30019B42B29A42E2DB731A5E42294667
:10B6C00004A85E41FFF728FF24AB03EB850329465E
:10B6D00053F8802C57F8803C43EAC27347F8803C0B
:10B6E0004846013CFFF718FF24B2A8E724AB00202E
:10B6F000C6F1010C014603EB860A03EB8C0CD8E77C
:10B7000030B591B004461D4668469DF95030FFF7AC
:10B71000B7FA2A4669462046FFF757FF11B030BDF9
:10B7200030B51C4691B0054693F900306846FFF7E6
:10B73000A7FAD4F8AC3069462846984711B030BD16
:10B7400030B5144691B092F9002005466846FFF7DF
:10B7500020FCD4F8AC3069462846984711B030BD7B
:10B760002DE9F04115468AB004460E461C22002100
:10B7700003A801F069F92F1D95F9008003232A46DB
:10B78000314620460293FFF7DBFF3B4602AA2146E3
:10B790002046CDF80080FFF704FF2B4632462146B5
:10B7A0002046FFF7BDFFCDF800803B4605F184023F
:10B7B00021462046FFF7D9FE0AB0BDE8F0812DE909
:10B7C000F04793F9006092B004468946104631462E
:10B7D00015461F46FFF771FD002840F091803A465C
:10B7E000494602A8FFF7ACFF3B4602AA21460AA839
:10B7F000FFF796FF02A908463A46FFF7A1FF3B462E
:10B800002A4649464846FFF78BFF07F104083A46A7
:10B8100029462846FFF794FF43462A4621462046FC
:10B820000096FFF7A2FE43462A4629462846009680
:10B83000FFF79BFE43462A46214628460096FFF71F
:10B84000B0FE3B462A4621462046FFF769FF4346A5
:10B850002246214628460096FFF787FE434600967B
:10B860002A4621462046FFF780FE2368DB074AD59B
:10B870003346424621462046FFF7A2F9314682462A
:10B880002046FFF749FE06F18043013B54F8232090
:10B8900042EACA7244F823203A4621462846FFF776
:10B8A0004FFF43460AAA294628460096FFF779FE2D
:10B8B00043460AAA294628460096FFF772FE0AA9BF
:10B8C000084643462A460096FFF76BFE3B460AAA07
:10B8D00021462046FFF724FF02AA43461046214690
:10B8E0000096FFF75EFE324629462046FFF71EFD12
:10B8F00049462846FFF71AFD02A94846FFF716FDFC
:10B9000012B0BDE8F08731462046FFF705FEC3E7D9
:10B910002DE9F0478AB01446DDF848A055461F4689
:10B9200015F9046B0096804689462B46024621464F
:10B9300002A8FFF736FE02A952460846FFF700FFAD
:10B94000534602AA41464046FFF7EAFE534602AA82
:10B9500021462046FFF7E4FE2B464A463946384644
:10B960000096FFF71EFE5246394602A8FFF7E8FE92
:10B9700002A92B46424608460096FFF712FE02A98E
:10B980002B46224608460096FFF70BFE2B46424602
:10B99000214620460096FFF704FE534622464946BC
:10B9A0004846FFF7BDFE2B4602AA414620460096B8
:10B9B000FFF7F7FD5346224639463846FFF7B0FEFB
:10B9C0002B464A46394638460096FFF7EAFD32468E
:10B9D00002A92046FFF7AAFC0AB0BDE8F08770B5BF
:10B9E00014468AB006460D461A46214602A801931F
:10B9F000FFF7A6FE019B02AA31463046FFF790FEF4
:10BA000002A9019B22460846FFF78AFE019B02AA73
:10BA100029462846FFF784FE0AB070BDF0B50F46F0
:10BA2000A1B006461946384615461C46FFF745FCA8
:10BA300028B1304621B0BDE8F040FFF7F0BB224608
:10BA400039466846FFF772FC294608A8FFF76EFCE6
:10BA5000214610A8FFF7E3FB0123214618A8109305
:10BA6000FFF7DDFB224608A96846FFF793F830B9D7
:10BA7000224610A93046FFF759FC21B0F0BD009BCB
:10BA8000DA0709D421466846FFF746FD22462946D3
:10BA900010A8FFF74EFDE5E7089BDB0707D421461A
:10BAA00008A8FFF739FD2246294618A8F1E7002823
:10BAB00023461CDD08AA69466846FFF7B1F821460F
:10BAC0006846FFF729FD224618A910A8FFF762F87B
:10BAD000002805DA10A923462A460846FFF770F821
:10BAE00010A9234618AA0846FFF79AF8CEE76A4637
:10BAF00008A8FFF795F8214608A8FFF70DFD224694
:10BB000010A918A8FFF746F8002805DA18A9234657
:10BB10002A460846FFF754F818A9234610AA0846F3
:10BB2000FFF77EF8BFE700000048704768CD0700C8
:10BB30002DE9F04F2DED028BEBB00D46769E049073
:10BB40001946B6F9023096F9008013F11F0948BF73
:10BB500003F13E0949F3471909F1FF3B22AB0024E9
:10BB600043F82B406AAB03EB8B034AA843F8804CA5
:10BB700043F8604C924696F90120FFF701F896F9D8
:10BB8000012052A81144FEF7FBFF41464AA8FFF7E7
:10BB900094FB0746002840F0238152A8FFF78DFB55
:10BBA0000290002840F01E8106F124034A464AA96B
:10BBB000184608EE103AFEF7EDFF012840F0148118
:10BBC00018EE100A4A4652A9FEF7E4FF0128059034
:10BBD00040F00A811AAC0AAF18EE102A4B462046F4
:10BBE000FFF71CFF029B47F82B3052462946384688
:10BBF0003346FFF71AFB3946384618EE103A22460C
:10BC0000CDF80090FFF77CFD0DF5B47A18EE103AF0
:10BC100022464AA912A8CDF80090FFF771FD4246CE
:10BC200050460499FFF782FB4FEA88030393049B75
:10BC30000AEB880503EB880106F1440B2846FFF761
:10BC400075FB594632A8FFF771FB039B3AA80BEB33
:10BC50000301FFF76BFB331D08EE903A514632AA01
:10BC60002046CDF80080FFF79CFC2B4652463AA9AF
:10BC700032A80096FFF74CFE18EE902A4346214664
:10BC80002046FFF7CBFE3346294650462246FFF7B3
:10BC9000A6FE029ACDE9062B049A49463846CDE91C
:10BCA000082AFFF723FB4946824612A8FFF71EFB2E
:10BCB0005045B8BF504685B2691E09B23846029158
:10BCC000FFF70AFB0299071E12A818BF0127FFF70A
:10BCD00003FB002814BF0220002006AB07434246A6
:10BCE00053F8271022A8FFF721FB039B0DF1A80BA7
:10BCF00019445846FFF71AFB41462046FFF78FFAD2
:10BD0000023D059B23602DB20DF1880A002D24DA37
:10BD100018EE902A434621462046FFF77FFE334621
:10BD2000224659465046FFF75AFE18EE100A4A4678
:10BD30005146FEF72FFF012805D018EE102A4B467A
:10BD40005046FEF76DFF42464AA95046FFF7D2FB28
:10BD50006BB0BDEC028BBDE8F08F33462246D6F8BF
:10BD6000A47059465046B84729460AA8FFF7B4FAC6
:10BD70002946071E12A818BF0127FFF7ADFA0028B1
:10BD800014BF02200020074306AB53F8271021B34D
:10BD9000424632A8FFF7CAFA039B3AA81944FFF7B4
:10BDA000C5FA01463346224632A8FFF718FE18EEC0
:10BDB000903A32AA514642A8CDF80080FFF7F1FB35
:10BDC0005B4652463AA932A80096FFF7A1FD3346DA
:10BDD00042AA21462046FFF7A3FC013D2DB295E77C
:10BDE0002046B5E73846B3E70298B1E7024AD2F8F1
:10BDF0000034002BFBD0704700E001400A4908B531
:10BE00000223C1F80435BFF36F8FBFF34F8FC1F822
:10BE10000805FFF7EBFF0023C1F80435BFF36F8F70
:10BE2000BFF34F8F08BD00BF00E0014010B5094CC3
:10BE30000123C4F80435BFF36F8FBFF34F8F016048
:10BE4000FFF7D4FF0023C4F80435BFF36F8FBFF3AF
:10BE50004F8F10BD00E0014070B50E4E0123154616
:10BE6000C6F80435BFF36F8FBFF34F8F0024AC4289
:10BE700007D10023C6F80435BFF36F8FBFF34F8F90
:10BE800070BD51F8243040F82430FFF7AFFF013483
:10BE9000EDE700BF00E0014070B5EFF3108672B629
:10BEA0000C4A946801239CB993600B4B0B4DD3F85B
:10BEB000801029401160C3F88050D3F8841051607D
:10BEC0004FF0FF32C3F88420047006B962B670BD2B
:10BED0000370FAE7CC7F002000E100E0FC06FFBD24
:10BEE000084B9A6810B55AB150B9EFF3108172B689
:10BEF000054A1C6814605C685460986001B962B6B9
:10BF000010BD00BFCC7F002000E100E02DE9F04F24
:10BF1000C9B008AA01F1400514464B780E781B04FD
:10BF200043EA0663CE7833438E78043143EA06232E
:10BF30008D4244F8043BF0D11024916B16464FEA31
:10BF4000F14383EA714383EA9123716A366852F8B8
:10BF5000045F31440B444FEAB54181EAF51181EAAF
:10BF6000D50101340B44402CD363E6D1D0E914E36E
:10BF70000093836D0193C36D0293036E0393436E2D
:10BF80000493836E0593C36E0693DDE9057BDDE9BB
:10BF9000031CDDE901592B4B009E079374464FF0BB
:10BFA0000008079B53F8042B07934FEAF12383EA19
:10BFB000B11383EA716A08AB53F828301A440AEBCC
:10BFC000020327EA010A01EA0C028AEA02021A4481
:10BFD0004FEA743A86EA05035A4423408AEAB40ACF
:10BFE00006EA050B83EA0B0B8AEAB45A08F101084A
:10BFF000DA44B8F1400F02EB0903BB465244A946AC
:10C0000019D172440265009A22444265019A324471
:10C010008265029A2A44C265039A1A44049B026606
:10C020000B444366059B63448366069B3B44C3669F
:10C0300049B0BDE8F08F674635468C46264619461E
:10C040001446AEE718CE070030B5E0B10F4A1049EC
:10C0500000240025C0E91245C0E914120D4C0E4A17
:10C060000E4DC0E916420E4AC0E918520D4A8266CA
:10C0700002F17452A2F523020023A2F69242036455
:10C08000C266184630BD0E20FCE700BF85AE67BB18
:10C0900067E6096A72F36E3C3AF54FA57F520E517E
:10C0A0008C68059BABD9831F70B5F0B1DAB900205D
:10C0B0001CE00C468D180026AC42F8D0036C14F836
:10C0C000012BC2540133402B0364F5D10146FFF725
:10C0D0001DFFD0E9123213F5007342F10002C0E9EE
:10C0E00012320664E8E70029E3D10E2070BD70B576
:10C0F0000D4616460446002876D0002974D0036CFD
:10C100008022591C372BE25408443FD8C3F1370230
:10C11000002100F099FCD4E91223216C0820E1FBF6
:10C120000023C4E9122312BAE26323FA00F284F86E
:10C130003B3084F83A201A0C1B0E214684F8392033
:10C1400084F838302046FFF7E1FE691E6EB3002305
:10C15000E26EDA4001F8012FA26EDA400A71626ED7
:10C16000DA400A72226EDA400A73E26DDA400A742B
:10C17000A26DDA400A75626DDA400A76226DDA4005
:10C180000833202B0A77E3D1002070BD4029C3F18A
:10C190003F024FF0000188BF002200F055FC21460D
:10C1A0002046FFF7B3FE3822B2E71823226DDA40AB
:10C1B00001F8012F626DDA400A71A26DDA400A724D
:10C1C000E26DDA400A73226EDA400A74626EDA4077
:10C1D0000A75A26EDA400A76E26EDA40083B13F185
:10C1E000080F0A77E2D1CFE70E20CEE74B1C30B51F
:10C1F000DB00044612F003009BB20DD1074D2A600C
:10C200001A44074B1A60074B1870074B1870074BFE
:10C210001C80074B198030BD0720FCE7E07F002021
:10C22000DC7F0020D87F0020E87F0020E47F002012
:10C23000E67F00202DE9F743DFF8BC80B8F8003036
:10C240008B4206460D46174647D300240DF10700E2
:10C250008DF80740FFF720FE224B234A23481B7826
:10C26000008892F800C084455FFA8CF138BF4C1CFE
:10C27000DBB238BFE4B2A34228D014781178CBB235
:10C28000884286BF0133DBB2002313709DF807009C
:10C29000FFF726FE4FF6FF739C4220D0144B1B681D
:10C2A00043F8347003EBC4099EB195B1114BB8F853
:10C2B00000001B682A46314604FB003000F0B6FB44
:10C2C000A9F80450002003B0BDE8F0834FF6FF74D6
:10C2D000DCE70020A9F80400F5E70920F3E70420D3
:10C2E000F1E700BFE87F0020D87F0020E67F002034
:10C2F000E07F0020DC7F0020E47F002070B5104C40
:10C30000104D22782B789A4200D170BD0E480F4A0A
:10C310002378126806880E4802EBC301006852F8C1
:10C320003320898803FB060090470A492278098850
:10C33000D3B2914286BF0133DBB200232370E0E722
:10C34000E87F0020D87F0020E47F0020E07F0020ED
:10C35000DC7F0020E67F00200B684A684360934240
:10C3600008BF0023016008BF43607047436843B1C2
:10C370000268916852680B449342436004BF0023F3
:10C380004360704710B590B1D0E9012301689B1A52
:10C39000DBB20A60013BDBB2FF2B026802D1002056
:10C3A000107110BD11684C1C14600B70F2E70E2068
:10C3B000F7E737B5054600240DF107008DF8074073
:10C3C000FFF76AFD2A686B68116899420ED9481E0A
:10C3D000106011F8013CEC68298A01FB0344AB684A
:10C3E00011791B1ADBB2994238BF13719DF807000F
:10C3F000FFF776FD204603B030BD37B50546002374
:10C400000DF107000C468DF80730FFF745FD2A684F
:10C410001368591C1160E968641A298AB4FBF1F4A5
:10C420001C709DF80700FFF75BFD03B030BD10B531
:10C4300061B1B2FBF3F403FB1424A4B244B9C0E924
:10C44000001484608281C381204610BD0E20FCE769
:10C450000920FAE782B050E8022FC188B2EB324FD0
:10C460004FF0000317BF92B241EA014142EA014195
:10C4700004E04268B2EB324F08BF012340E80212E9
:10C48000002AE8D18DF807309DF80730002B0CBF4B
:10C490001120002002B0704737B550E8013F9DB22F
:10C4A000C48925448489A54228BF2D1B0489A5423F
:10C4B00002BFBFF32F8F002207E0C5EA030540E863
:10C4C0000154002CE9D14FF001028DF803200193B3
:10C4D000019A0A609DF8031001F0FF0321B1006882
:10C4E00010FA82F003B030BD1846FBE70A884B888B
:10C4F0009A4209D150E8012FC2EA024240E80123E2
:10C50000002BF7D1012070470020704737B550E865
:10C51000023F1FFAA3F5C488A54202BFBFF32F8FC5
:10C5200000220DE0C48925448489A54228BF2D1B23
:10C53000C3EA054540E80254002CE8D14FF001025F
:10C540008DF803200193019A0A609DF8031001F011
:10C55000FF0321B1006800EB124003B030BD184664
:10C56000FBE70A884B889A4209D150E8022FC2EAB9
:10C57000224240E80223002BF7D10120704700201F
:10C58000704710B5034653E8000F40EA010243E844
:10C59000002494F0000FF6D110BD10B5034653E807
:10C5A000002F02EA010043E8000494F0000FF6D1E6
:10C5B00010BD0121FFF7E5BF0021FFF7EEBF0088A6
:10C5C00000F00100704701309DF8002019D0481C90
:10C5D00017D0012B0CBF03230023022A12D002F034
:10C5E000FD02012A01D143F00C039DF8042001F55E
:10C5F000E071012A4FF0A04208BF43F4C06342F843
:10C600002130704743F00403EFE700002DE9F041CB
:10C61000194E00243746A046A50005F1804505F5D2
:10C62000C045D5F8003133B1736813B1F1682046C5
:10C630009847C5F800810134082C06F11006EBD1AB
:10C640000E4CD4F87C3183B1D7F8843023B1D7F8BD
:10C650008C104FF0FF3098470023C4F87C314FF026
:10C66000A0434FF0FF32C3F82025054B4022C3F80A
:10C670008021BDE8F08100BFEC7F00200060004019
:10C6800000E100E0FEE7FEE7044B9A6BF1EE103AA2
:10C69000136C23F09F031364704700BF00EF00E0AA
:10C6A0004FF08053D3F83001421C04BF4FF0704369
:10C6B00093F8E00F831F5842584170474FF0704382
:10C6C00093F8E02F062A09D1D3F8E83FC3F3031308
:10C6D000033B042B02D8024AD05C7047002070470D
:10C6E00027CF0700024AD2F80034002BFBD0704756
:10C6F00000E00140014B024A1A607047A85900202F
:10C700000090D00310B5FFF7CBFF40B14FF080533E
:10C71000944AD3F82433C3F30423C2F84035FFF717
:10C72000CDFF10B1904B914A5A67FFF7B9FF48B15E
:10C730004FF080534FF08042D3F84432C3F342337A
:10C74000C2F83C35FFF7BAFF30B1894AD2F8FC3065
:10C7500023F08073C2F8FC30FFF7A2FF40B14FF026
:10C7600080430022C3F80C21C3F81021C3F83825F8
:10C77000FFF7A4FF20B14FF080430322C3F8A025A8
:10C78000FFF79CFF60B17B4B0522C3F81026012206
:10C79000C3F888260022C3F818263F22C3F81426BF
:10C7A0004FF08053D3F83021511C09BF4FF0704334
:10C7B000D3F8343193F8E02FD3F8E83F08BFC3F340
:10C7C0000313062A4DD1033B042B03D86A4AD35CDA
:10C7D000002B46D04FF08052684BD2F80414C3F8B7
:10C7E0002015D2F80814C3F82415D2F80C14C3F895
:10C7F0002815D2F81014C3F82C15D2F81414C3F865
:10C800003015D2F81814C3F83415D2F81C14C3F834
:10C810004015D2F82014C3F84415D2F82414C3F8F4
:10C820004815D2F82814C3F84C15D2F82C14C3F8C4
:10C830005015D2F83014C3F85415D2F83414C3F894
:10C840006015D2F83814C3F86415D2F83C14C3F854
:10C850006815D2F84014C3F86C15D2F84424C3F814
:10C860007025FFF71DFF48B14FF080534FF0804215
:10C87000D3F8583203F04F03C2F8E43EFFF710FF3D
:10C8800048B14FF08043D3F80024D20744BF6FF083
:10C890000102C3F800244FF08053D3F83021062A58
:10C8A0000ED1D3F83431033B042B02D8344AD35C85
:10C8B00033B1344AD2F83C3743F48063C2F83C3792
:10C8C0002B4AD2F8883043F47003C2F88830BFF3A3
:10C8D0004F8FBFF36F8F4FF08053D3F83021062A6C
:10C8E0000FD1D3F83431033B042B02D8264AD35C52
:10C8F0003BB14FF01023D3F808224FF08043C3F828
:10C9000058254FF01023D3F80022002A03DBD3F878
:10C910000432002B22DA1D4901234FF01020C1F808
:10C9200004351524FFF7DEFEC0F80042FFF7DAFEFB
:10C93000C0F80442FFF7D6FE0023C1F80435FFF724
:10C94000D1FEBFF34F8F0A49114BCA6802F4E0626F
:10C950001343CB60BFF34F8F00BFFDE70D4B0E4A73
:10C960001A6010BD0030014000C007400DF0ADBAA4
:10C9700000ED00E00050004018CF070000C000406C
:10C980001DCF07000010004022CF070000E001404B
:10C990000400FA05A85900200090D00308B5074B01
:10C9A000044613B10021AFF30080054B1868836A79
:10C9B00003B19847204600F04FF800BF0000000088
:10C9C0002CCF070070B50D4D0D4C641BA410002634
:10C9D000A64209D10B4D0C4CFAF74AFD641BA4107A
:10C9E0000026A64205D170BD55F8043B9847013694
:10C9F000EEE755F8043B98470136F2E76859002006
:10CA000068590020685900206C59002010B5013980
:10CA10000244904201D1002005E0037811F8014F53
:10CA2000A34201D0181B10BD0130F2E70A44914225
:10CA300000F1FF3300D1704710B511F8014B03F836
:10CA4000014F9142F9D110BD02440346934200D1F7
:10CA5000704703F8011BF9E7FEE700BF010000077C
:10CA600078CF070080CF07000800000068CF0700DC
:10CA700078CF07000800000060CF070068CF0700EC
:10CA80000800000058CF070060CF07000800000032
:10CA900080CF070088CF070008000000957C0700C2
:10CAA0003B7C07008B810700FB8107001B8207008E
:10CAB0008B7B07004D7B07002781070000000000EB
:10CAC0000010000004000000010000008D8207003B
:10CAD000B1820700C1820700D182070025830700C9
:10CAE000998207009D820700A182070000100000C4
:10CAF00004000000010000003984070019840700C9
:10CB00000984070045860700F5850700DD830700D7
:10CB1000E1830700E5830700B7860700B1860700B9
:10CB2000918607002000000078000000000000004F
:10CB3000480028000020400029BB07000100010038
:10CB400000000000010000000000000002000500DD
:10CB50000100000042000000000000000000000092
:10CB600000000000000000000000000001001100B3
:10CB70000100FFFF0100000000000000020017009C
:10CB80000200FEFF64010000CCCB070000000000A3
:10CB90000000000000000000000000000100010093
:10CBA000000000000100000000000000020005007D
:10CBB0000100000022000000000000000000000052
:10CBC0000000000000000000000000000100110053
:10CBD0000400FCFF0400000000000000020011003F
:10CBE0000400FCFF0400000000000000030021001E
:10CBF0000400FCFF0400100000000000040011000D
:10CC00000100FFFF0100000000000000050011000E
:10CC10000200FEFF040000000000000006001100FA
:10CC20000400FCFF040000000000000007001100E9
:10CC30000400FCFF040000000000000008001700D2
:10CC40000200FEFF240000009CCB0700090010003A
:10CC50000100FFFF010000007CCC07000A00270054
:10CC60000200FEFF440003003CCB07000000000070
:10CC700000000000000000000000000000000000B4
:10CC8000010017000400FCFF680100006CCB0700E6
:10CC9000020017000400FCFFAC010000B0CC07004C
:10CCA0000000000000000000000000000000000084
:10CCB0000100070000000000680100006CCB0700C5
:10CCC0000200010000000000010000000000000060
:10CCD0000300050001000000420000000000000009
:10CCE0000000000000000000000000000000000044
:10CCF000446675546172670050EADA308883B89FE1
